:020000040800F2
:1000000000000220711B0008C9090008CD09000882
:10001000D1090008D5090008D9090008000000002E
:10002000000000000000000000000000DD090008E2
:10003000E109000800000000E5090008E9090008DE
:10004000C11B0008C11B0008C11B0008C11B000820
:10005000C11B0008C11B0008C11B0008C11B000810
:10006000C11B0008C11B0008C11B0008C11B000800
:10007000C11B0008C11B0008C11B0008C11B0008F0
:10008000C11B0008C11B0008C11B0008C11B0008E0
:10009000F1090008C11B0008C11B0008C11B0008B2
:1000A000C11B0008C11B0008C11B0008C11B0008C0
:1000B000C11B0008C11B0008C11B0008C11B0008B0
:1000C000C11B0008C11B0008C11B0008C11B0008A0
:1000D000C11B0008C11B0008C11B0008C11B000890
:1000E000C11B0008C11B0008C11B0008C11B000880
:1000F000C11B0008C11B0008C11B0008C11B000870
:10010000C11B0008C11B0008C11B0008C11B00085F
:10011000C11B0008C11B0008C11B0008C11B00084F
:10012000C11B0008C11B0008C11B0008C11B00083F
:10013000C11B0008C11B0008C11B0008C11B00082F
:10014000C11B0008C11B0008C11B0008C11B00081F
:10015000C11B0008C11B0008C11B0008C11B00080F
:10016000C11B0008C11B0008C11B0008C11B0008FF
:10017000C11B0008C11B0008C11B000800000000D3
:08018000C11B0008C11B0008AF
:10018800044B05481B1A062B02D9044B03B1184728
:10019800704700BF0F0000200C0000200000000086
:1001A80005490648091A891001EBD171491002D096
:1001B800034B03B1184770470C0000200C000020C7
:1001C8000000000010B5064C237843B9FFF7D8FFAC
:1001D800044B13B10448AFF300800123237010BD12
:1001E8000C00002000000000101C000808B5084B97
:1001F8001BB108480849AFF300800848036813B9E1
:10020800BDE80840CCE7064B002BF9D09847F7E744
:1002180000000000101C0008100000200C00002046
:100228000000000053B94AB9002908BF00281CBFC4
:100238004FF0FF314FF0FF3000F03CB882B0EC4691
:100248002DE9005000F01EF8DDF804E002B00CBC07
:10025800704700BF2DE9F041069C154606460F463B
:10026800984600F029F805FB01F300FB0838A5FBC8
:100278000023B21A434467EB0303C4E90023BDE833
:10028800F08100BF2DE9F041069C904606460F46D6
:100298001D4600F05FF900FB05F5A0FB082308FBED
:1002A8000155B21A2B4467EB0303C4E90023BDE8E8
:1002B800F08100BF704700BF00292DE9F043C0F26C
:1002C800A6800026002BC0F29C80884694469E4655
:1002D800154604460F46002B3DD18A4259D9B2FA39
:1002E80082F33BB1C3F120029F4020FA02F29D4005
:1002F80017439C40290C220CB7FBF1FEA8B201FB66
:100308001E7742EA074700FB0EF3BB420AD97F1962
:100318000EF1FF3280F00581BB4240F20281AEF15E
:10032800020E2F44FF1AA4B2B7FBF1F301FB1377B7
:1003380044EA074700FB03F0B84208D97F1903F1E4
:10034800FF3280F0F080B84240F2ED80023B43EA91
:100358000E43002203E08B420FD900221346341CBF
:1003680018BF012460424FF0000565EB4501584075
:10037800514000196941BDE8F083B3FA83F2002ABD
:1003880040F086808B4202D3844500F2DB80012353
:10039800E5E712B90123B3FBF2F5B5FA85F00028B9
:1003A8003BD1781B4FEA154E1FFA85FC0122B0FBA2
:1003B800FEF8210C0EFB180741EA07470CFB08F36F
:1003C800BB4207D97F1908F1FF3102D2BB4200F2C4
:1003D800BD808846FF1AA4B2B7FBFEF30EFB137765
:1003E80044EA07470CFB03FCBC4507D97F1903F116
:1003F800FF3102D2BC4500F2A7800B4643EA08430E
:10040800ADE752426FEA060663EB43035DE74042FD
:1004180061EB41014FF0FF3654E7C0F1200224FAA6
:1004280002F107FA00F385404FEA154ED740194309
:10043800B7FBFEF20B0C0EFB12771FFA85FC43EAA2
:1004480007430CFB02F79F4204FA00F407D95B1933
:1004580002F1FF3074D29F4272D9023A2B44DF1B5B
:1004680089B2B7FBFEF80EFB187341EA03430CFB95
:1004780008F79F4208D95B1908F1FF315CD29F4207
:100488005AD9A8F102082B44D81B48EA02428EE741
:10049800C2F120032CFA03F10EFA02FE20FA03F748
:1004A80041EA0E0E08FA02F028FA03F14FEA1E4557
:1004B8003843B1FBF5F8030C05FB18111FFA8EF74A
:1004C80043EA014107FB08F38B420CFA02FC09D905
:1004D80011EB0E0108F1FF3930D28B422ED9A8F169
:1004E80002087144C91A80B2B1FBF5F305FB131178
:1004F80040EA014107FB03F78F4208D911EB0E01CF
:1005080003F1FF3016D28F4214D9023B714443EAFB
:100518000843C91BA3FB0C89494509D305D0002210
:100528001DE79646FEE6134611E794404445F6D289
:10053800013BF4E70346EAE78846A5E7C846D1E762
:1005480002468CE713460AE7023B57E7A8F1020880
:100558002F443FE72DE9F041002B44D18A4215464C
:1005680004464FD9B2FA82F70E464FB1C7F12003BD
:10057800B94020FA03F602FA07F50E4300FA07F429
:100588004FEA154E230CB6FBFEF0AFB20EFB10611E
:1005980043EA014307FB00F1994209D95B1900F1CD
:1005A800FF3280F0EC80994240F2E98002382B4417
:1005B8005A1AA4B2B2FBFEF30EFB132244EA02421B
:1005C80007FB03F7974208D9521903F1FF3180F06E
:1005D800D880974240F2D580023B43EA004000268B
:1005E8003146BDE8F0818B4247D8B3FA83F6002E36
:1005F80048D18B4202D3824200F2CD80012031469D
:10060800BDE8F08112B90125B5FBF2F5B5FA85F818
:10061800B8F1000F77D14A1B4FEA154EAFB2012649
:10062800B2FBFEF0230C0EFB102143EA014107FB4D
:1006380000F38B4207D9491900F1FF3202D28B42ED
:1006480000F2BA801046C91AA4B2B1FBFEF30EFB41
:10065800131144EA014407FB03F7A74208D96419B8
:1006680003F1FF3280F08F80A74240F28C80023B7A
:1006780043EA00403146BDE8F08100263046314665
:10068800BDE8F081C6F1200422FA04F5B3402B43FB
:1006980020FA04FC01FA06F721FA04F54FEA134E92
:1006A8004CEA0707B5FBFEF8390C0EFB18551FFA84
:1006B80083FC41EA05450CFB08F1A94202FA06F25F
:1006C80004D9ED1808F1FF3467D3A0466D1ABFB2FC
:1006D800B5FBFEF40EFB145547EA05410CFB04FC80
:1006E8008C4504D9C91804F1FF355CD32C4644EA7B
:1006F8000844CCEB0101A4FB0223994248D344D01F
:10070800204600266CE7C8F1200401FA08F305FA30
:1007180008F520FA04F7E1404FEA154E1F43B1FBF4
:10072800FEF63A0C0EFB16111FFA85FC42EA01434D
:100738000CFB06F29A4200FA08F407D95B1906F195
:10074800FF3137D29A4235D9023E2B449B1ABFB2A9
:10075800B3FBFEF00EFB103347EA03430CFB00F13A
:10076800994207D95B1900F1FF3221D299421FD96A
:1007780002382B445A1A40EA0646674650E71046A4
:1007880016E70B4629E7134672E7B0409042B7D206
:10079800601E002624E7304622E7A94295D9A8F131
:1007A80002081D4492E78C45A0D9023C19449EE7F3
:1007B8001046DFE70E46C9E70238294443E700BF81
:1007C80030B589B0002403940494059406940794E2
:1007D8000094184B1A6B42F080021A631A6B02F0ED
:1007E80080020092009A01941A6B42F004021A6384
:1007F8001A6B02F004020192019A02941A6B42F0F9
:1008080002021A631B6B03F002030293029B0A4D58
:1008180028460721224601F0AFF807230393012356
:10082800049305940694284603A900F0BDFF09B077
:1008380030BD00BF003802400008024008B50B4830
:100848000B4B03601523436000238360C3604FF4A0
:10085800302202614FF44012426103764376837678
:10086800C3760377437700F051F908BD780000207C
:100878000064004010B594B00024089409940A94C8
:100888000B940C940D940E940F941094119412944C
:100898001394039404940594069407940194154BB7
:1008A8001A6C42F080521A641B6C03F08053019357
:1008B800019B0294104B1A6842F480421A601B682C
:1008C80003F480430293029B0223089301230B93B2
:1008D80010230C930E9408A800F086FC0F230393B2
:1008E800049405940694079403A8214600F0ACFEEE
:1008F80014B010BD003802400070004008B501F087
:10090800CDF8FFF7B7FFFFF75BFFFFF797FF264A22
:100918000120106100239360D36040F245211160EB
:1009280022490B614FF491420A604B608B60CB60A7
:10093800C86108621E4C204600F092F9204600F07B
:1009480023FA2046022100F0F7FA1A4B1B78FF2BF6
:1009580012D1194C204601210A4601F00DF84FF436
:100968007A7001F0C7F820460121002201F004F84E
:100978004FF47A7001F0BEF8104B1B78FF2BE4D1CE
:100988000D4C20460221012200F0F6FF4FF47A7048
:1009980001F0B0F820460221002200F0EDFF4FF4EC
:1009A8007A7001F0A7F8D0E7A00000202800002006
:1009B8007800002058000020000802405000002065
:1009C800704700BFFEE700BFFEE700BFFEE700BFBD
:1009D800FEE700BF704700BF704700BF704700BF09
:1009E80008B501F075F808BD38B5154D284600F072
:1009F800D3FA144C28460021134A234600F0F4F990
:100A08002378052B1BD8DFE803F003070B0F131718
:100A1800FF220E4B1A7038BD00220C4B1A7038BDDD
:100A2800FF220B4B1A7038BD0022094B1A7038BDD3
:100A3800FF22084B1A7038BD0022064B1A7038BDC9
:100A480078000020510000205C00002058000020A1
:100A5800500000205900002082B0002100910B4B6B
:100A68005A6C42F480425A645A6C02F480420092F2
:100A7800009A01911A6C42F080521A641B6C03F0C0
:100A880080530193019B02B0704700BF00380240B9
:100A980010B588B000230393049305930693079336
:100AA8000268184B9A422BD10024019403F5EA33CB
:100AB8001A6C42F000721A641A6C02F00072019209
:100AC800019A02941A6B42F002021A631B6B03F03C
:100AD80002030293029B4FF440730393022304938F
:100AE8000323069309230793074803A900F05CFE34
:100AF80014202146224600F057FF142000F086FFFC
:100B080008B010BD0064004000040240002800F056
:100B1800A48038B5044690F8203013F0FF0F01D1B7
:100B2800FFF7B6FF2268136823F00203136000F092
:100B3800DBFF05460DE000F0D7FF401B0A2808D967
:100B4800636A43F400336362052384F8203001208C
:100B580038BD23685A6812F0020FECD11A6842F0C7
:100B680001021A6000F0C0FF05460DE000F0BCFF6E
:100B7800401B0A2808D9636A43F4003363620523DB
:100B880084F82030012038BD23685A6812F0010F1C
:100B9800ECD0227E012A04D11A6842F080021A6041
:100BA80003E01A6822F080021A60637E012B05D1E7
:100BB8002268136843F04003136004E02268136856
:100BC80023F040031360A37E012B05D1226813682C
:100BD80043F02003136004E02268136823F0200325
:100BE8001360E37E012B05D12268136823F01003FC
:100BF800136004E02268136843F010031360237F36
:100C0800012B05D12268136843F00803136004E040
:100C18002268136823F008031360637F012B05D152
:100C28002268136843F00403136004E02268136821
:100C380023F0040313602168A268E3681A43236958
:100C48001A4363691A436368013B1343CB6100206D
:100C58006062012384F8203038BD0120704700BF4E
:100C680070B490F82030DBB2012B04D090F820301B
:100C7800DBB2022B7FD1434BD3F8002242F00102B2
:100C8800C3F80022D3F8002222F47C52C3F80022D1
:100C9800D3F80022486A42EA0022C3F800224869D1
:100CA80001228240D3F81C02D4432040C3F81C021E
:100CB800CB69B3B9334BD3F80C022040C3F80C020C
:100CC8004869CE688D8845EA0645483043F8305073
:100CD8004D698E68088840EA0640483503EBC5032D
:100CE8005860CB69012B16D1264BD3F80C02104360
:100CF800C3F80C0248690E688D8845EA06454830F5
:100D080043F830504D698E68888940EA0640483576
:100D180003EBC50358608B6933B91A48D0F804321D
:100D28002340C0F8043205E01648D0F804321343D3
:100D3800C0F804320B6933B91248D0F814321C4099
:100D4800C0F8144205E00F48D0F814321343C0F835
:100D580014320B6A012B05D10A4BD3F81C120A4333
:100D6800C3F81C22074AD2F8003223F00103C2F864
:100D78000032002004E0436A43F4802343620120E8
:100D880070BC70470064004038B590F82030DBB282
:100D9800012B22D10446022380F820300268136810
:100DA80023F00103136000F09FFE05460DE000F0FC
:100DB8009BFE401B0A2808D9636A43F40033636228
:100DC800052384F82030012038BD23685B6813F0C0
:100DD800010FECD10020606238BD436A43F4002360
:100DE8004362012038BD00BF30B490F82040E4B21F
:100DF800012C05D090F82040E4B2022C40F09280FB
:100E080051B90468E46814F0030F12D1436A43F43B
:100E18000013436201208CE001290AD10468246987
:100E280014F0030F05D1436A43F400134362012011
:100E38007FE0056801F11B0424012C5904F0040427
:100E480094603CB9056801F11B0424012C59640D18
:100E5800146006E0056801F11B0424012C59E4081C
:100E68005460056801F11B0424012D59C5F34005A0
:100E7800D560056825446D6805F00F05156105689E
:100E880025446D68C5F30725956105682C44646899
:100E9800240C546104680A011444D4F8B8411C7045
:100EA80004681444D4F8B841C4F307245C70046897
:100EB8001444D4F8B841C4F307449C70046814443B
:100EC800D4F8B841240EDC700468144404F5DC74CA
:100ED80064681C710468144404F5DC746468C4F321
:100EE80007245C710468144404F5DC746468C4F372
:100EF80007449C710468224402F5DC725268120EA1
:100F0800DA7131B90268D36843F02003D360002056
:100F18000FE001290CD10268136943F02003136123
:100F2800002006E0436A43F480234362012000E086
:100F3800002030BC704700BF90F82030DBB2012B96
:100F480004D090F82030DBB2022B05D103685A692F
:100F58001143596100207047436A43F48023436278
:100F680001207047704700BF704700BF704700BF3F
:100F7800704700BF704700BF704700BF704700BF91
:100F8800704700BF704700BF704700BF704700BF81
:100F9800704700BF704700BF2DE9F84F054603684A
:100FA8005C695F689E68D3F80C90D3F81080D3F81A
:100FB80018A014F0010F5AD016F0010F14D0012216
:100FC8009A6016F0020F04D0FFF7CCFF4FF0000B29
:100FD80012E016F0040F0AD116F0080F0AD1FFF735
:100FE800C7FF4FF0000B07E04FF0000B04E04FF491
:100FF800006B01E04FF4805B16F4807F19D02B68FA
:101008004FF480729A6016F4007F03D02846FFF7E9
:10101800ABFF0EE016F4806F02D04BF4005B08E0E3
:1010280016F4006F02D04BF4804B02E02846FFF71D
:10103800A1FF16F4803F1CD02B684FF480329A60D1
:1010480016F4003F03D02846FFF790FF11E016F48E
:10105800802F02D04BF4004B0BE016F4002F02D087
:101068004BF4803B05E02846FFF786FF01E04FF090
:10107800000B14F0080F07D019F0100F04D04BF430
:10108800007B2B681022DA6014F0040F08D019F0E6
:10109800080F05D02B680822DA602846FFF770FF92
:1010A80014F0020F07D02B68DB6813F0030F02D08F
:1010B8002846FFF763FF14F0400F07D018F0100F11
:1010C80004D04BF4806B2B6810221A6114F0200FA7
:1010D80008D018F0080F05D02B6808221A61284696
:1010E800FFF752FF14F0100F07D02B681B6913F09D
:1010F800030F02D02846FFF745FF14F4003F08D03D
:1011080017F0100F05D02B6810225A602846FFF7F9
:101118003DFF14F4803F08D017F0080F05D02B6866
:1011280008225A602846FFF733FF14F4004F4ED0C8
:1011380017F0040F48D014F4807F04D01AF0010F80
:1011480001D04BF0010B14F4007F04D01AF0020F09
:1011580001D04BF0020B14F4806F04D01AF0040F86
:1011680001D04BF0040B14F4006F2DD01AF0700A64
:101178002AD0BAF1300F17D006D8BAF1100F0DD017
:10118800BAF1200F0DD01AE0BAF1500F12D0BAF10F
:10119800600F12D0BAF1400F11D108E04BF0080BE4
:1011A8000DE04BF0100B0AE04BF0200B07E04BF082
:1011B800400B04E04BF0800B01E04BF4807B2A6885
:1011C800936923F0700393612B6804225A60BBF182
:1011D800000F06D06B6A43EA0B036B622846FFF7E1
:1011E800D9FEBDE8F88F00BF002800F0B58170B5C2
:1011F80082B00446036813F0010F5AD0A04B9B68D5
:1012080003F00C03042B0AD09D4B9B6803F00C03DE
:10121800082B0DD19A4B5B6813F4800F08D0984BBC
:101228001B6813F4003F44D06368002B41D195E15B
:101238006368B3F5803F05D1914A136843F480335E
:10124800136015E0B3F5A02F09D18D4B1A6842F44D
:1012580080221A601A6842F480321A6008E0884BCB
:101268001A6822F480321A601A6822F480221A60FE
:1012780063687BB100F038FC054605E000F034FCFB
:10128800401B642800F26C817D4B1B6813F4003FFF
:10129800F4D00EE000F028FC054605E000F024FC40
:1012A800401B642800F25E81754B1B6813F4003FF5
:1012B800F4D1236813F0020F50D0714B9B6813F0E0
:1012C8000C0F0AD06E4B9B6803F00C03082B16D149
:1012D8006B4B5B6813F4800F11D1694B1B6813F0DB
:1012E800020F03D0E368012B40F03E81644A136883
:1012F80023F0F803216943EAC10313602EE0E36891
:10130800D3B101225F4B1A6000F0EEFB054605E001
:1013180000F0EAFB401B022800F22881584B1B68AA
:1013280013F0020FF4D0564A136823F0F80321692A
:1013380043EAC103136011E00022524B1A6000F027
:10134800D3FB054605E000F0CFFB401B022800F266
:101358000F814B4B1B6813F0020FF4D1236813F075
:10136800080F26D0636993B10122474B1A6000F039
:10137800BBFB054605E000F0B7FB401B022800F266
:10138800F9803F4B5B6F13F0020FF4D011E000229D
:101398003D4B1A6000F0A8FB054605E000F0A4FBF1
:1013A800401B022800F2E880354B5B6F13F0020FF8
:1013B800F4D1236813F0040F7CD0314B1B6C13F06D
:1013C800805F0DD1002301932D4B1A6C42F080529F
:1013D8001A641B6C03F080530193019B012500E004
:1013E80000252A4B1B6813F4807F13D1274A136802
:1013F80043F48073136000F077FB064605E000F0C5
:1014080073FB801B022800F2B980204B1B6813F481
:10141800807FF4D0A368012B05D1194A136F43F0DC
:101428000103136714E0052B09D1154B1A6F42F01D
:1014380004021A671A6F42F001021A6708E0104B9B
:101448001A6F22F001021A671A6F22F004021A6753
:10145800A3688BB100F048FB064607E000F044FBA8
:10146800801B41F28833984200F28A80044B1B6F3C
:1014780013F0020FF2D017E000F036FB06460EE03C
:101488000038024000004742800E4742007000408A
:1014980000F02AFB801B41F28833984272D8404BF7
:1014A8001B6F13F0020FF3D125B13D4A136C23F0E3
:1014B80080531364A369002B66D0394A926802F0FE
:1014C8000C02082A62D0022B33D10022354B1A6055
:1014D80000F00AFB054604E000F006FB401B02286A
:1014E80056D82F4B1B6813F0007FF5D1E269236AA9
:1014F8001343626A43EA8213A26A5208013A43EA32
:101508000243E26A43EA0263254A53600122254BFB
:101518001A6000F0E9FA044604E000F0E5FA001B5E
:10152800022837D81E4B1B6813F0007FF5D0002027
:1015380033E000221B4B1A6000F0D6FA044604E0A0
:1015480000F0D2FA001B022826D8154B1B6813F0AE
:10155800007FF5D1002020E00120704701201CE029
:1015680003201AE0032018E0012016E0032014E00D
:10157800032012E0032010E003200EE003200CE01B
:1015880003200AE0032008E0002006E0012004E030
:10159800032002E0032000E0032002B070BD00BF7A
:1015A800003802406000474238B5244B9B6803F07E
:1015B8000C03042B3FD0082B01D0214838BD1F4B0A
:1015C8005A6802F03F025B6813F4800F0AD01B4B85
:1015D8005B68C3F388131B48A3FB00010023FEF7D5
:1015E80021FE1FE0154B5B68C3F38813DC00002560
:1015F800690141EAD4616001041B61EB0505A90199
:1016080041EA9461A001001B61EB0501C01841F19A
:1016180000018B0243EA90538402204619460023B6
:10162800FEF700FE054B5B68C3F3014301335B0023
:10163800B0FBF3F038BD034838BD00BF00380240A6
:101648000024F40040787D01002800F0978070B5F0
:101658000D460446504B1B6803F00F038B4208D21B
:10166800CBB24D4A1370136803F00F038B4240F05E
:101678008780236813F0020F17D013F0040F04D0EB
:10168800464A936843F4E0539360236813F0080FC5
:1016980004D0424A936843F4604393603F498B689F
:1016A80023F0F002A36813438B60236813F0010F43
:1016B8002FD06268012A05D1384B1B6813F4003F0C
:1016C8000ED15FE0931E012B05D8344B1B6813F035
:1016D800007F05D158E0314B1B6813F0020F55D03D
:1016E8002E498B6823F0030313438B6000F0FCF949
:1016F800064606E000F0F8F9801B41F2883398426C
:1017080046D8264B9B6803F00C036268B3EB820F44
:10171800F0D1214B1B6803F00F03AB4207D9EAB2A3
:101728001D4B1A701B6803F00F03AB4232D12368BC
:1017380013F0040F06D019498B6823F4E052E368CC
:1017480013438B60236813F0080F07D0134A93687C
:1017580023F46043216943EAC1039360FFF724FF40
:101768000E4B9B68C3F303130D4AD35CD8400D4B53
:101778001860002000F06CF9002070BD012070474F
:10178800012070BD012070BD012070BD012070BD19
:10179800032070BD012070BD003C024000380240AB
:1017A800281C0008080000202DE9F04182B0002321
:1017B800D3E09C4601229A400C681440944240F0C1
:1017C800CB804D68022D01D0122D14D14FEAD308D9
:1017D80008F1080850F8287003F0070E4FEA8E0E3B
:1017E8000F2505FA0EF527EA05060D6905FA0EF527
:1017F800354340F8285006684FEA430E032505FA9A
:101808000EF5ED4305EA06074E6806F0030606FAEC
:101818000EF63E4306604E68771E012F03D9112E3F
:1018280001D0122E12D1866805EA0607CE6806FA9C
:101838000EF63E438660476827EA02074E68C6F3FD
:10184800001202FA0CF646EA07024260C2682A4011
:101858008D6805FA0EF51543C5604A6812F0805F79
:101868007AD000220192404A556C45F4804555646F
:10187800526C02F480420192019A9A08961C3B4DE0
:1018880055F8266003F00307BF000F25BD4026EA80
:101898000506374DA8422BD005F58065A84225D00E
:1018A80005F58065A8421FD005F58065A84219D0C6
:1018B80005F58065A84213D005F58065A8420DD0CE
:1018C80005F58065A84207D005F58065A84201D1D5
:1018D80007250EE008250CE006250AE0052508E0A6
:1018E800042506E0032504E0022502E0012500E0C6
:1018F8000025BD40354302321C4E46F822501D4A91
:101908001568E24302EA05064F6817F4803F01D0E4
:1019180044EA0506174D2E606D6802EA05064F6811
:1019280017F4003F01D044EA0506124D6E60AD6819
:1019380002EA05064F6817F4801F01D044EA05063D
:101948000C4DAE60ED682A404E6816F4001F01D0B9
:1019580044EA0502074CE26001330F2B7FF629AFFA
:1019680002B0BDE8F08100BF0038024000380140F5
:1019780000000240003C01400AB18161704709043F
:101988008161704700F00700064AD36823F4E063DA
:101998001B041B0C43EA002040F0BF6040F40030F9
:1019A800D060704700ED00E030B4164BDC68C4F33B
:1019B8000224C4F10705042D28BF0425231D062B86
:1019C80001D9033C00E00024012303FA05F5013D99
:1019D8002940A140A340013B1A400A43002806DAE7
:1019E80000F00F001201D2B2074B1A5407E012019F
:1019F800D2B200F1604000F5614080F8002330BCAD
:101A0800704700BF00ED00E014ED00E0410900F070
:101A18001F0001238340024A42F82130704700BF6B
:101A280000E100E00138B0F1807F0AD2064B58602F
:101A3800F021064A82F823100020986007221A60D5
:101A480070470120704700BF10E000E000ED00E0A3
:101A580010B504460E4B18784FF47A73B3FBF0F3C5
:101A68000C4A1068B0FBF3F0FFF7DCFF58B90F2CF5
:101A78000BD84FF0FF3021460022FFF795FF064BA9
:101A88001C60002010BD012010BD012010BD00BF4A
:101A980004000020080000200000002008B50B4BBF
:101AA8001A6842F400721A601A6842F480621A6076
:101AB8001A6842F480721A600320FFF763FF00205F
:101AC800FFF7C6FFFEF7C8FF002008BD003C024034
:101AD800034A1368034909780B441360704700BF31
:101AE800B800002004000020014B1868704700BFB0
:101AF800B800002038B50446FFF7F6FF0546B4F1F4
:101B0800FF3F02D0044B1B781C44FFF7EDFF401B3E
:101B18008442FAD838BD00BF040000200F49D1F82C
:101B2800883043F47003C1F888300D4B1A6842F0CE
:101B380001021A60002098601A6822F0847222F468
:101B480080321A60074A5A601A6822F480221A60A2
:101B5800D8604FF000638B60704700BF00ED00E075
:101B68000038024010300024DFF834D0002103E0B0
:101B78000C4B5B58435004310B480C4B42189A42AB
:101B8800F6D30B4A02E0002342F8043B094B9A4281
:101B9800F9D3FFF7C3FF00F011F8FEF7AFFE704767
:101BA80000000220481C0008000000200C00002053
:101BB8000C000020BC000020FEE7000070B50E4BB2
:101BC8000E4CE41AA41000251E46A54204D056F86F
:101BD800253098470135F8E700F016F8084C094B0E
:101BE800E41AA41000251E46A54204D056F8253054
:101BF80098470135F8E770BD401C0008401C0008F4
:101C0800441C0008401C0008F8B500BFF8BC08BC1C
:101C18009E467047F8B500BFF8BC08BC9E467047A2
:101C28000000000000000000010203040607080984
:081C380088E6FF7F01000000B7
:041C4000F5010008A2
:041C4400CD010008C6
:0C1C480010000000010000000024F40067
:0400000508001B7163
:00000001FF
