:020000040800F2
:10000000880500209D01000863160008811500087E
:1000100061160008A90200089319000800000000FA
:10002000000000000000000000000000671600084B
:100030009903000800000000651600086916000812
:10004000B7010008B7010008B7010008B7010008B0
:10005000B7010008B7010008B7010008B7010008A0
:10006000B7010008B7010008B7010008B701000890
:10007000B7010008B7010008B7010008B701000880
:10008000B7010008B7010008B7010008B701000870
:10009000AD020008B7010008B7010008B701000869
:1000A000B7010008B7010008B7010008B701000850
:1000B000B701000849170008AD170008B70100088C
:1000C000B7010008B7010008B7010008B701000830
:1000D000B7010008B7010008B7010008B701000820
:1000E000B7010008B7010008B7010008B701000810
:1000F000B7010008B7010008B7010008B701000800
:10010000B7010008B7010008B7010008B7010008EF
:10011000B7010008B7010008B7010008B7010008DF
:10012000B7010008B7010008B7010008B7010008CF
:10013000B7010008B7010008B7010008B7010008BF
:10014000B7010008B7010008B7010008B7010008AF
:10015000B7010008B7010008B7010008B70100089F
:10016000B7010008B7010008B7010008B70100088F
:10017000B7010008B7010008B7010008000000003F
:10018000B7010008B7010008DFF80CD000F07AF8DA
:1001900000480047411A00088805002006488047AB
:1001A00006480047FEE7FEE7FEE7FEE7FEE7FEE75C
:1001B000FEE7FEE7FEE7FEE7F51600088901000806
:1001C0002DE9F05F0546002092469B46884606468C
:1001D000814640241BE0284641464746224600F01F
:1001E00041F853465A46C01A914110D31146184659
:1001F000224600F028F82D1A67EB01084F462246E8
:100200000120002100F01FF817EB00094E41201ECD
:10021000A4F10104DFDC484631462A464346BDE8E6
:10022000F09FD2B201E000F8012B491EFBD27047CB
:100230000022F6E710B513460A4604461946FFF7B2
:10024000F0FF204610BD202A04DB203A00FA02F11C
:10025000002070479140C2F1200320FA03F31943B4
:1002600090407047202A04DB203A21FA02F0002156
:10027000704721FA02F3D040C2F1200291400843B6
:1002800019467047064C074D06E0E06840F0010350
:1002900094E8070098471034AC42F6D3FFF778FF94
:1002A000981C0008B81C0008FEE7000010B52E4896
:1002B00000F081F92D4B2E4A00212B4800F007F960
:1002C0002B482C4A29490068B0F5107F09D0B0F5B9
:1002D000407F2DD0A0F54070EE3801D10420106091
:1002E00010BD0B780120042B19D006DC012B0BD09C
:1002F000022B10D0032B1BD10FE0052B11D0062BA6
:1003000011D0FE2B14D111E01B4A10701B4802685B
:10031000D24302600CE01A4A06E01A4A04E01A4A84
:1003200002E01A4A00E01A4A107001E00020106052
:1003300009781848202911D007DC10290BD0112981
:10034000CED14FF08061016010BD212909D0F12983
:10035000FAD11021F7E74FF48061F4E74FF4006120
:10036000F1E74FF00061EEE73000002018000020B8
:10037000680100201000002005000020140C02403D
:1003800006000020030000200400002007000020D9
:100390000800002018080240704790F82020012A29
:1003A00007D0022A05D0416A41F480214162012030
:1003B0007047006842690A434261002070470000AC
:1003C00010B590F82020012A07D0022A05D0416AF2
:1003D00041F480214162012010BD3B48D0F8002249
:1003E00042F00102C0F80022D0F8002222F47C5230
:1003F000C0F80022D0F800224B6A42EA0322C0F87B
:1004000000220A7D02F01F0301229A40D0F81C321C
:100410009343C0F81C32CB69B3B9D0F80C32934384
:10042000C0F80C328C894B6864F31F434C6900EBB5
:10043000C404C4F840320C890B6864F31F434C6950
:1004400000EBC404C4F84432CB69012B16D1D0F8B8
:100450000C321343C0F80C320C884B6864F31F4312
:100460004C6900EBC404C4F840320C89CB6864F3D7
:100470001F434C6900EBC404C4F844328B69002B61
:10048000D0F804320ED01343C0F804320B69002BAD
:10049000D0F8143208D01343C0F81432096A012985
:1004A00004D008E09343EFE79343F5E7D0F81C123C
:1004B0001143C0F81C12D0F8001221F00101C0F85D
:1004C0000012002010BD000000640040704730B5ED
:1004D00090F82040012C05D0022C03D0416A41F451
:1004E00080215DE00468002955D02469A40754D018
:1004F0004FF4D874056804EB01142D5915F0040568
:10050000956005682D594ED0ED08556005682C5949
:1005100004F00204D4604FF4DA74056804EB0114AB
:100520002D5905F00F05156105682D59C5F30725EF
:10053000956105682C59240C54614FF4DC720468F1
:1005400002EB0112A4581C700468A458240A5C70C1
:100550000468A458240C9C700468A258120EDA7027
:100560004FF4DE72046802EB0112A4581C71046897
:10057000A458240A5C710468A458240C9C71046873
:10058000A258120EDA71006881B1016941F02001B0
:100590000161002030BDE468A8E7416A41F4001120
:1005A0004162012030BD6D0D1560AFE7C16841F0BB
:1005B0002001C160EDE72DE9F05F054600680024E9
:1005C0004669D0F804908768D0F80CB0D0F810A035
:1005D000D0F81880F10748D0F90714D001218160C4
:1005E000B80703D5284600F0E2F90CE0780702D5F9
:1005F0004FF4006407E0380702D54FF4805402E05E
:10060000284600F0D3F9F80516D529684FF4807014
:100610008860B80503D5284600F0CBF90CE07805D2
:1006200002D544F4005407E0380502D544F4804470
:1006300002E0284600F0BCF9F80316D529684FF40B
:1006400080308860B80303D5284600F0B4F90CE088
:10065000780302D544F4004407E0380302D544F49B
:10066000803402E0284600F0A5F9300707D55FEA9C
:10067000CB6004D52968102044F40074C86070076A
:100680004FF0080707D55FEA0B7004D52868C760EC
:10069000284600F059F9B00706D52868C0688007D9
:1006A00002D0284600F051F9700607D55FEACA600B
:1006B00004D52968102044F480640861B00607D589
:1006C0005FEA0A7004D528680761284600F03EF901
:1006D000F00606D528680069800702D0284600F099
:1006E00036F9B00308D55FEAC96005D5296810203E
:1006F0004860284600F02CF9F00307D55FEA09703E
:1007000004D528684760284600F056F9300446D5DD
:100710005FEA497040D5F00504D55FEAC87001D0A2
:1007200044F00104B00504D55FEA887001D544F0B7
:100730000204700504D55FEA487001D544F0040452
:10074000300529D518F0700F26D008F07000402829
:1007500015D006DC102809D020280AD0302816D160
:100760000AE050280ED0602811D10EE044F00804B1
:100770000DE044F010040AE044F0200407E044F0E7
:10078000400404E044F0800401E044F480742868EC
:10079000816921F070018161296804204860002C82
:1007A00005D0686A204368622846FFF78FFEBDE8DF
:1007B000F09F70B5040003D094F8200010B104E05D
:1007C000012070BD204600F081F82068016821F00A
:1007D0000201016000F0DAF90546052604E000F0A8
:1007E000D5F9401B0A2811D8206840688007F6D444
:1007F0002068016841F00101016000F0C7F9054679
:100800000BE000F0C3F9401B0A2806D9606A40F4E7
:100810000030606284F82060D2E720684068C0073A
:10082000EFD0207E0128206801683DD021F08001B2
:100830000160607E01282068016838D021F0400105
:100840000160A07E01282068016833D021F02001DA
:100850000160E07E0128206801682ED041F010017F
:100860000160207F01282068016829D021F008015B
:100870000160607F01282068016824D021F0040114
:100880000160D4E902010843D4E90412114308438A
:100890006168491E08432168C86100206062012028
:1008A00084F82000002070BD41F08001C0E741F0D5
:1008B0004001C5E741F02001CAE721F01001CFE770
:1008C00041F00801D4E741F00401D9E710B586B042
:1008D000044614216846FFF7ABFC1849206888429B
:1008E00029D117480021026842F0007202600068B6
:1008F00000F00070059012481038026842F00202C1
:100900000260006800F0020005904FF44070009013
:100910000220CDE9010103200390092004906946DB
:10092000084800F057F800220121142000F09CF93B
:10093000142000F08BF906B010BD000000640040E8
:1009400040380240000402407047704770477047CB
:100950007047000070B5044690F82000012804D0CC
:10096000606A40F40020606218E0022084F82000F1
:100970002068016821F00101016000F007F90546D7
:100980000EE000BF00F002F9401B0A2808D9606A97
:1009900040F400306062052084F82000012070BD22
:1009A00020684068C007EDD1606270BD7047704735
:1009B000704770477047704770477047044910B5DB
:1009C0000A68024202D00860FFF7F7FF10BD00007E
:1009D000143C01402DE9F84F00224FF00108032597
:1009E0004FF00F0E0B6808FA02F42340A3426ED1B9
:1009F0004E68012E05D0022E03D0112E01D0122EEA
:100A000012D186684FEA420C05FA0CF7BE43CF6854
:100A100007FA0CF7374387604668A6430C79C4F39E
:100A20000014944034434460C668570005FA07FC3C
:100A30008C6826EA0C06BC403443C4604C68022C27
:100A400001D0122C13D1D40800EB8404A346D4F8AF
:100A5000209054074FEAD46A0EFA0AF629EA0609EA
:100A60000E6906FA0AF646EA0906CBF8206006681F
:100A70000C7926EA0C0604F00304BC4034430460FD
:100A80004C68E40065D5364C266846F480462660FE
:100A9000246822F0030604F480440094314C34446A
:100AA000A446D4F808489607370F0EFA07F6B44361
:100AB0002D4EB04201D1002624E02C4EB04201D18F
:100AC00001261FE02A4EB04202D102261AE040E081
:100AD000284EB04201D1032614E0274EB04201D186
:100AE00004260FE0254EB04201D105260AE0244E2F
:100AF000B04201D1062605E0224EB04201D10726C0
:100B000000E00826BE402643CCF808681E4E346834
:100B10004F689C43FF0300D51C4334601A4C241DCE
:100B200026684F689E43BF0300D51E432660164EBD
:100B3000083634684F689C43FF0200D51C4334607C
:100B4000114E0C3634684F689C43BF0200D51C43DD
:100B50003460521C102AFFF445AFBDE8F88F000046
:100B600044380240003001400000024000040240CE
:100B700000080240000C0240001002400014024035
:100B800000180240001C0240003C014001488068FF
:100B90007047000024000020024881680278114458
:100BA00081607047240000200B4810B5016841F4B3
:100BB00000710160016841F480610160016841F4E5
:100BC00080710160032000F06FF8002000F006F84B
:100BD00000F024F8002010BD003C024070B50D4D1F
:100BE00004464FF47A712878B1FBF0F00A4909689D
:100BF000B1FBF0F000F0E4FA48B9102C07D2002263
:100C00002146501E00F030F800206C6070BD0120BD
:100C100070BD000024000020200000200A4808B514
:100C2000016841F480410160006800F48040009058
:100C30000548001F016841F080510160006800F024
:100C40008050009008BD000044380240002809DBB5
:100C500000F01F02012191404009800000F1E020D6
:100C6000C0F8001170470000F0B40E4B1B680C4632
:100C7000C3F30223C3F10705042D00D90425191D70
:100C8000072901D2002300E0DB1E012606FA05F148
:100C9000491E214099409E40761E16403143F0BCCB
:100CA00000F0AEBE0CED00E0064900F00702086857
:100CB0004FF6FF03184040EA0220034A1043086041
:100CC000704700000CED00E00000FA052DE9F04748
:100CD0000E46050065D0DFF81481D8F80000F7B2A1
:100CE00000F00F00B04207D288F80070D8F800007A
:100CF00000F00F00B04254D128683D4C810712D556
:100D0000400703D5206840F4E050206028780007B1
:100D100003D5206840F4604020602068A96820F076
:100D2000F000084320602878C0072DD0304968685B
:100D30000839012812D0022813D0032811D00968DD
:100D4000890700292DDA216821F003010143216080
:100D5000FFF71CFF814641F2883A0EE009688903DB
:100D6000EFE709688901ECE7FFF710FFA0EB090145
:100D7000514502D90320BDE8F0872068696800F07A
:100D80000C00B0EB810FEFD1D8F80010404601F015
:100D90000F01B14207D90770006800F00F00B042A0
:100DA00001D00120E7E72878400705D52068E968E9
:100DB00020F4E050084320602878000706D520681A
:100DC000296920F4604040EAC100206000F018F872
:100DD0002168084AC1F30311515CC8400649086004
:100DE00006480068FFF7FAFE0020C4E7003C024016
:100DF00008380240861C000820000020280000203F
:100E0000154810B5006810F00C02144813D01449AE
:100E1000042A0FD0082A0ED10F4C241F2268236801
:100E200002F03F025B0207D52068C0F38810A0FBE8
:100E3000010106E0084610BD2168C1F38811A1FB3D
:100E400000010023FFF7BCF92168C1F30141491CEF
:100E50004900B0FBF1F010BD083802400024F40056
:100E600040787D012DE9F84F040076D02078DFF836
:100E700038A3CE4DC00749D0DAF800105046C1F370
:100E80008101012908D00068C0F3810002280AD13D
:100E9000281D0068400206D52868800336D56068A2
:100EA0000028E2D032E06068B0F5803F10D0B0F5A5
:100EB000A02F286810D020F480302860286820F403
:100EC000802028606068A0B1FFF760FE06460CE055
:100ED000286840F48030F4E740F480202860F7E789
:100EE000FFF754FE801B642873D828688003F7D569
:100EF0000CE0FFF74BFE064605E000BFFFF746FE9D
:100F0000801B6428F0D828688003F7D42078DFF8A5
:100F1000A08280074FF000093ED5DAF80010504655
:100F200011F00C0F09D00068C0F3810002280BD12A
:100F30009D48001F0068400206D42868800715D528
:100F4000E068012809D111E0E068B8B10120C8F8D3
:100F50000000FFF71BFE064605E020E1FFF716FE46
:100F6000801B0228C0D828688007F7D52868216927
:100F700020F0F80040EAC10028600DE0C8F80090B9
:100F8000FFF704FE064604E0FFF700FE801B022880
:100F90001FD828688007F7D42078000722D5824E12
:100FA000844861696C3671B101210160FFF7EEFD83
:100FB000074604E0FFF7EAFDC01B022809D83068A5
:100FC0008007F7D50EE0C0F80090FFF7DFFD074679
:100FD00005E082E0FFF7DAFDC01B02287DD830680B
:100FE0008007F7D42078400768D5DFF8BCB1002728
:100FF0000BF1380BDBF80000C0000BD4DBF800105D
:1010000041F08051CBF80010DBF80000012700F020
:1010100080500090684E3068C00510D4306840F4AD
:1010200080703060FFF7B2FD009005E0FFF7AEFD85
:101030000099401A022850D83068C005F6D55A4E9B
:10104000A068683601280FD00528306810D020F03D
:1010500001003060306820F004003060A068B8B152
:10106000FFF794FD00900FE0306840F00100F4E7D6
:1010700040F004003060F7E7FFF788FD0099411A5F
:1010800041F28830814266D830688007F4D50EE09E
:10109000FFF77CFD009007E0FFF778FD0099411A0B
:1010A00041F28830814256D830688007F4D42FB19D
:1010B000DBF8001021F08051CBF80010A069D0B30C
:1010C000DAF800205146C2F38102022A4AD00228EF
:1010D000484607D0C8F8600000E03CE0FFF756FD46
:1010E00004463BE04746C8F86000FFF74FFD064660
:1010F00005E000BFFFF74AFD801B02282BD82868B7
:101100008001F7D4D4E907010843A16A2B4A4908B2
:1011100002EB0141626A41EA8211084394F82C1003
:1011200040EA01612048001F016001203866FFF796
:101130002DFD044605E034E0FFF728FD001B0228E2
:1011400009D828688001F7D52BE000BFFFF71EFD06
:10115000001B022802D90320BDE8F88F286880010F
:10116000F4D41EE00128F7D00868E26900F4800199
:10117000914214D1226A00F03F0191420FD147F60B
:10118000C071626A0140914209D1A26A00F4403103
:10119000914204D1E16A00F07060884201D00120E0
:1011A000DAE70020D8E700000838024000380240A3
:1011B00000004742800E4742007000400000FFFFE1
:1011C00010B5401EB0F1807F01D3012010BD4FF05B
:1011D000E02460610F21601700F012FC0020A06184
:1011E00007202061002010BD7047704770B590F84F
:1011F0003C20012A32D0012480F83C40022280F8B1
:101200003D2003685A689D6822F070060A683243E0
:101210005A60134B02689A4214D0B2F1804F11D039
:10122000104B9A420ED0104B9A420BD00F4B9A4261
:1012300008D00F4B9A4205D00E4B9A4202D00E4B6B
:101240009A4204D1496825F080031943916080F8DF
:101250003D40002180F83C10084670BD022070BD62
:10126000000001400004004000080040000C004065
:1012700000040140004001400018004010B5040087
:1012800003D094F83D0010B107E0012010BD00200C
:1012900084F83C00204600F00DF8022084F83D0060
:1012A000211D206800F0DCFA012084F83D000020B8
:1012B00010BD000008B5154A0168154891420ED1CD
:1012C000016841F0020101600068002200F00200A4
:1012D000009011461D20FFF7C7FC1D2010E00D4AAD
:1012E000914211D1016841F00401016000680022BF
:1012F00000F00400009002211E20FFF7B5FC1E2024
:10130000BDE80840FFF7A2BC08BD00000004004093
:1013100040380240000800400168CA6842F00102FB
:10132000CA600068816801F00701062903D00168DE
:1013300041F0010101600020704770B5044690F84B
:101340003C00012817D0012584F83C50022084F885
:101350003D002068826822F0770222F47F4282609A
:101360000868502830D00DDC20284DD005DC98B31B
:1013700010283BD148E0022070BD302844D04028DE
:1013800034D139E0602828D0702806D0B0F5805FCD
:101390002CD0B0F5005F29D10AE0CB68D1E901215A
:1013A000206800F0C1FA2068816841F0770109E007
:1013B000CB68D1E90121206800F0B6FA2068816885
:1013C00041F48041816011E0CA684968206800F0FA
:1013D000BDFA5021206807E016E0CA684968206815
:1013E00000F0C5FA6021206800F0A8FA84F83D50AA
:1013F000002084F83C0070BDCA684968206800F08D
:10140000A5FA40212068EFE7226801461046EBE785
:10141000704770B50446006801694FF00005C94384
:10142000890715D4C168C943890711D4E91E016130
:1014300001202077206880698007204602D0FFF7CE
:10144000E7FF04E000F098F8204600F096F82577D2
:1014500020680169C943490717D4C168C9434907CE
:1014600013D46FF0040101610220207720688069A5
:1014700010F4407F204602D0FFF7CAFF04E000F0DE
:101480007BF8204600F079F8257720680169C94388
:10149000090716D4C168C943090712D46FF00801BF
:1014A0000161042020772068C0698007204602D0AF
:1014B000FFF7AEFF04E000F05FF8204600F05DF8B3
:1014C000257720680169C943C90617D4C168C94393
:1014D000C90613D46FF0100101610820207720683D
:1014E000C06910F4407F204602D0FFF791FF04E06E
:1014F00000F042F8204600F040F8257720680169A6
:10150000C943C90708D1C168C943C90704D1891EA5
:101510000161204600F032F820680169C9430906DC
:1015200009D4C168C943090605D46FF0800101617F
:101530002046FFF759FE20680169C943490609D4CE
:10154000C168C943490605D46FF0400101612046D6
:1015500000F015F820680169C94389060BD4C168F9
:10156000C943890607D46FF0200101612046BDE818
:101570007040FFF73ABE70BD7047704770477047C4
:10158000FEE700000B480A494FF480220160022167
:10159000416000218160C0E903129200426101763E
:1015A00041768176C17601774177FFF702B9000075
:1015B000006400403000002010B586B000241248BE
:1015C000009401940294039404940E4905940160DC
:1015D0006421C0E9011440F22621C0E903148461AA
:1015E000FFF74CFE4FF48050009069460648FFF725
:1015F000A4FE049404A904480594FFF7F7FD06B07F
:1016000010BD0000000400405800002010B586B056
:1016100000241248009401940294039404940E4907
:101620000594016041F69C01C0E9011440F22621B5
:10163000C0E903148461FFF721FE4FF4805000904D
:1016400069460648FFF779FE049404A90348059407
:10165000FFF7CCFD06B010BD000800409800002048
:10166000FEE7704770477047FFF796BA10B592B023
:1016700030216846FEF7DCFD14210CA8FEF7D8FDEA
:101680001A480021026842F080520260006800F0AF
:10169000805011901648026842F48042026000684F
:1016A000022400F480401190012003901020049047
:1016B000009406940820CDE907104020CDE90904E4
:1016C00004200B906846FFF7CDFB0F20CDE90C04FA
:1016D00090200E904FF4A0500F90E0021090002147
:1016E0000CA8FFF7F3FA12B010BD0000403802401A
:1016F000007000401048016841F4700101600F481B
:10170000016841F0010101600C4A002108321160BA
:1017100002680B4B1A400260031D0A4A1A600268F5
:1017200022F48022026005480C300160024958060C
:10173000803908607047000088ED00E00038024002
:10174000FFFFF6FE1030002470B51148FFF761FE70
:10175000104800691049C0F38022086842EA40003E
:101760000860401C13D10D4D4FF6FF742C602815F6
:10177000FFF724F92C600A48E90501604FF0806109
:10178000016008490120087007490420086070BD05
:1017900058000020001002401C000020140C0240E1
:1017A00018080240000000201000002070B52448F6
:1017B000FFF72FFE234D2E78234A00242349244887
:1017C00001232EB116781EB106780EB9067826B11F
:1017D0002D7855B1157825B107E014704FF080725F
:1017E00002E013704FF480720A601A4D2E781A4A84
:1017F0001EB116780EB1067826B12D7865B1157830
:1018000025B109E014704FF0007204E005781DB9AD
:1018100013704FF400720A600578104A2DB11578E4
:101820001DB114704FF0407008E00078002806D019
:101830001078002803D113704FF44070086070BD19
:10184000980000200A0000200C0000201808024028
:101850000B000020090000200D0000200E000020D9
:10186000F0B50268254C264D264E274F274B4FF0EA
:10187000804CA04209D0604507D0A84205D0B042B4
:1018800003D0B84201D0984204D122F0700E4A68C9
:1018900042EA0E02A0421BD0604519D0A84217D0E0
:1018A000B04215D0B84213D0984211D0184DA8427A
:1018B0000ED0184DA8420BD0174DA84208D0174D96
:1018C000A84205D0164DA84202D0164DA84203D119
:1018D00022F44075CA682A434D6922F080022A43E7
:1018E00002608A68C2620A688262A04201D098429D
:1018F00001D10969016301214161F0BD000001408E
:101900000004004000080040000C004000040140BA
:1019100000400140004401400048014000180040E0
:10192000001C00400020004010B5846842EA0322F9
:1019300024F47F440A432243826010BD826822F06F
:1019400070020A4342F007018160704710B5036AD4
:10195000046A24F001040462846924F0F00444EA77
:10196000021423F00A020A438461026210BD10B51A
:10197000036A23F0100303628369046A23F470434B
:1019800043EA023224F0A00343EA011182610162BA
:1019900010BDFEE7134808B5016841F00801016079
:1019A000016801F008010091016841F00401016043
:1019B000016801F004010091016841F0100101602B
:1019C00000680A4900F010000090074808600949C3
:1019D000074808600948084901604FF05531C16067
:1019E00008BD000030380240FFFFF755000C0240F0
:1019F000FCF755FF00080240FCDFCFDF001002407B
:101A00000907090E002804DB00F1E02080F800142B
:101A1000704700F00F0000F1E02080F8141D7047BF
:101A200002E008C8121F08C1002AFAD170477047A7
:101A3000002001E001C1121F002AFBD17047000005
:101A400008B5FFF7B1F8FFF711FE4FF4FA7000F098
:101A50000FF980480024016841F0800101600168AD
:101A600001F080010091016841F00201016000680D
:101A700000F002000090FFF785FDFFF7C7FDFFF7BC
:101A80009BFDFFF787FF744801254FF4C041846038
:101A9000C0E90345183000F128060461B56175619D
:101AA000C5610562C0E900140146C038FEF788FC34
:101AB00002203461C6E905044FF4D0404FF4FF57CB
:101AC00086E89100F5613146F760A1F1E8003562E2
:101AD000FEF776FC06F1280003210461C6E905142F
:101AE00047F6C05180E89200C5614FF6E07105628B
:101AF000C1600146A0F58870FEF762FCA6F1E8001F
:101B0000FEF728FF0221A6F1E800FEF746FCA6F149
:101B10008000FFF701FCA6F1C000FFF7FDFBDFF836
:101B20003CA1DFF83C914F4B4F4E4FF0040B4FF070
:101B300040774FF0806818690528FCD2DFE800F094
:101B4000033D5571830018780028F4D1DAF81000AD
:101B5000C0F38020587008B1584660E04FF48060B0
:101B6000306018780028E6D140F2DC5000F080F8B0
:101B70003D480838006810F001009870ECD04FF430
:101B80002060306018780028D5D14FF4FA7000F04A
:101B90006FF8C6F800804021CAF818104FF47A7028
:101BA00000F066F831494FF0007008601D61081FB1
:101BB000016841F480510160BDE7587958B1376040
:101BC0009C721C735D725C73D9F8001041F00101C6
:101BD000C9F800105C719879F8B1987AE8B95C722C
:101BE0004FF0007030609C7117E0D87858B13760C2
:101BF0005C725C739D721C73D9F8001041F0010196
:101C0000C9F80010DC70187938B1587A28B93760F3
:101C10009C724FF0807030601C711869401C186114
:101C200089E7D87940B1DD729C73D9F8001041F092
:101C30000101C9F80010DC71187A10B1DC7237604C
:101C40001C721D6177E74FF020603060C6F800809D
:101C5000F7E7000030380240D800002000100240B2
:101C6000140800400000002018080240180C024030
:101C700000EB40020021C2EBC01000E0491CB1EBB8
:101C8000401FFBD37047000000000000000001026D
:101C90000304060708090000B81C00080000002023
:101CA00030000000201A0008E81C00083000002066
:101CB00058050000301A0008000000000000000075
:101CC0000000000000000000000000000000000014
:101CD00000000000000000000024F40001000000EB
:081CE0001000000000000000EC
:040000050800018965
:00000001FF
