:020000040800F2
:10000000A80400209D010008A31200086D1200083A
:10001000A1120008A9020008A513000800000000B2
:10002000000000000000000000000000C7120008EF
:100030000D03000800000000C5120008C9120008E6
:10004000B7010008B7010008B7010008B7010008B0
:10005000B7010008B7010008B7010008B7010008A0
:10006000B7010008B7010008B7010008B701000890
:10007000B7010008B7010008B7010008B701000880
:10008000B7010008B7010008B7010008B701000870
:10009000AD020008B7010008B7010008B701000869
:1000A000B7010008B7010008B7010008B701000850
:1000B000B7010008B7010008B7010008B701000840
:1000C000B7010008B7010008B7010008B701000830
:1000D000B7010008B7010008B7010008B701000820
:1000E000B7010008B7010008B7010008B701000810
:1000F000B7010008B7010008B7010008B701000800
:10010000B7010008B7010008B7010008B7010008EF
:10011000B7010008B7010008B7010008B7010008DF
:10012000B7010008B7010008B7010008B7010008CF
:10013000B7010008B7010008B7010008B7010008BF
:10014000B7010008B7010008B7010008B7010008AF
:10015000B7010008B7010008B7010008B70100089F
:10016000B7010008B7010008B7010008B70100088F
:10017000B7010008B7010008B7010008000000003F
:10018000B7010008B7010008DFF80CD000F07AF8DA
:1001900000480047FD130008A804002006488047D7
:1001A00006480047FEE7FEE7FEE7FEE7FEE7FEE75C
:1001B000FEE7FEE7FEE7FEE75113000889010008AD
:1001C0002DE9F05F0546002092469B46884606468C
:1001D000814640241BE0284641464746224600F01F
:1001E00041F853465A46C01A914110D31146184659
:1001F000224600F028F82D1A67EB01084F462246E8
:100200000120002100F01FF817EB00094E41201ECD
:10021000A4F10104DFDC484631462A464346BDE8E6
:10022000F09FD2B201E000F8012B491EFBD27047CB
:100230000022F6E710B513460A4604461946FFF7B2
:10024000F0FF204610BD202A04DB203A00FA02F11C
:10025000002070479140C2F1200320FA03F31943B4
:1002600090407047202A04DB203A21FA02F0002156
:10027000704721FA02F3D040C2F1200291400843B6
:1002800019467047064C074D06E0E06840F0010350
:1002900094E8070098471034AC42F6D3FFF778FF94
:1002A000EC1400080C150008FEE7000010B5084823
:1002B00000F0DEF9074B084A0021054800F05BF921
:1002C00004480078FF2802D104490120087010BDBD
:1002D000200000200C000020880000200D000020DD
:1002E00070B5094D0121284600F0B0FC0446642099
:1002F00000F0C2FB0121284600F0A8FCA04201D179
:10030000204670BD002070BD001002407047000004
:10031000164808B5016841F008010160016801F064
:1003200008010091016841F010010160016801F0CD
:1003300010010091016841F080010160016801F045
:1003400080010091016841F00201016000680849E4
:1003500000F0020000906FF02A40086005486FF03E
:100360003F0101604FF0AA31C16008BD3038024042
:10037000000C02400010024090F82020012A09D011
:1003800090F82020022A05D0416A41F48021416280
:1003900001207047006842690A43426100207047AB
:1003A000F0B590F82040012C07D090F82040022CA6
:1003B00003D0416A41F4802153E00468A5686D01CF
:1003C00005D4A5682D0102D4A568ED0046D5A46822
:1003D0000125C4F30164A5401D608D684FF4C0730E
:1003E0009DB1CE6835434E6845EAC605066803EB05
:1003F0000417F5514FF4C275076805EB04150E6933
:100400007E51097D012905D009E00E88CD6845EAB5
:100410004655EBE701684E5946F480764E51117906
:10042000D2F805504FF4C67641EA0521056806EB7F
:100430000416A9511178D2F801204FF4C47541EA8D
:100440000221026805EB04155151006803EB041109
:10045000425842F0010242500020F0BD416A41F48E
:10046000001141620120F0BD10B590F82020012A52
:1004700009D090F82020022A05D0416A41F4802159
:100480004162012010BD3A48D0F8002242F001023A
:10049000C0F80022D0F8002222F47C52C0F80022DA
:1004A000D0F800224B6A42EA0322C0F800220B7DFA
:1004B00001229A40D0F81C329343C0F81C32CB6919
:1004C000B3B9D0F80C329343C0F80C328C894B6826
:1004D00064F31F434C6900EBC404C4F840320C8938
:1004E0000B6864F31F434C6900EBC404C4F8443246
:1004F000CB69012B16D1D0F80C321343C0F80C3263
:100500000C884B6864F31F434C6900EBC404C4F8C7
:1005100040320C89CB6864F31F434C6900EBC40480
:10052000C4F844328B69002BD0F804320ED0134348
:10053000C0F804320B69002BD0F8143208D01343F2
:10054000C0F81432096A012904D008E09343EFE7A8
:100550009343F5E7D0F81C121143C0F81C12D0F8F1
:10056000001221F00101C0F80012002010BD0000AF
:1005700000640040704730B590F82040012C07D04F
:1005800090F82040022C03D0416A41F4802109E018
:1005900011B1012909D00CE00468E46807E0416A60
:1005A00041F400114162012030BD04682469A407B0
:1005B000F5D04FF4D874056804EB01142D5915F0EB
:1005C0000405956005682D5942D0ED085560056811
:1005D0002C59C4F34004D4604FF4DA74056804EB7A
:1005E00001142D5905F00F05156105682D59C5F346
:1005F0000725956105682C59240C54614FF4DC7271
:10060000046802EB0112A4581C700468A458240A60
:100610005C700468A458240C9C700468A258120EE4
:10062000DA704FF4DE72046802EB0112A4581C71F8
:100630000468A458240A5C710468A458240C9C71B2
:100640000468A258120EDA7129B1012909D00DE00F
:100650006D0D1560BBE70068C16841F02001C16005
:1006600004E00068016941F020010161002030BD13
:100670002DE9F05F0546006800244669D0F8049033
:100680008768D0F80CB0D0F810A0D0F81880F10727
:1006900048D0F90714D001218160B80703D5284656
:1006A00000F0E3F90CE0780702D54FF4006407E0AE
:1006B000380702D54FF4805402E0284600F0D4F900
:1006C000F80516D529684FF480708860B80503D501
:1006D000284600F0CCF90CE0780502D544F400542B
:1006E00007E0380502D544F4804402E0284600F0D3
:1006F000BDF9F80316D529684FF480308860B80337
:1007000003D5284600F0B5F90CE0780302D544F48F
:10071000004407E0380302D544F4803402E0284660
:1007200000F0A6F9300707D55FEACB6004D5296849
:10073000102044F40074C86070074FF0080707D514
:100740005FEA0B7004D52868C760284600F05AF9A4
:10075000B00706D52868C068800702D0284600F098
:1007600052F9700607D55FEACA6004D529681020DF
:1007700044F480640861B00607D55FEA0A7004D5C6
:1007800028680761284600F03FF9F00606D528687A
:100790000069800702D0284600F037F9B00308D579
:1007A0005FEAC96005D5296810204860284600F036
:1007B0002DF9F00307D55FEA097004D52868476072
:1007C000284600F057F9300446D55FEA497040D515
:1007D000F00504D55FEAC87001D044F00104B0050B
:1007E00004D55FEA887001D544F00204700504D591
:1007F0005FEA487001D544F00404300529D518F0AB
:10080000700F26D008F07000402815D006DC1028A4
:1008100009D020280AD0302816D10AE050280ED05E
:10082000602811D10EE044F008040DE044F01004FB
:100830000AE044F0200407E044F0400404E044F0FF
:10084000800401E044F480742868816921F070011B
:100850008161296804204860002C05D0686A204323
:1008600068622846FFF786FEBDE8F09F70B5040079
:1008700003D094F8200010B104E0012070BD2046A0
:1008800000F082F82068016821F00201016000F0A8
:10089000E3F90546052604E000F0DEF9401B0A28CE
:1008A00011D8206840688007F6D42068016841F0BC
:1008B0000101016000F0D0F905460BE000F0CCF931
:1008C000401B0A2806D9606A40F40030606284F850
:1008D0002060D2E720684068C007EFD0207E012862
:1008E000206801683DD021F080010160607E012810
:1008F0002068016838D021F040010160A07E012805
:100900002068016833D021F020010160E07E0128D9
:10091000206801682ED041F010010160207F01287D
:100920002068016829D021F008010160607F01285A
:100930002068016824D021F004010160D4E902019B
:100940000843D4E90412114308436168491E08436F
:100950002168C86100206062012084F82000002026
:1009600070BD41F08001C0E741F04001C5E741F0B2
:100970002001CAE721F01001CFE741F00801D4E7D8
:1009800041F00401D9E7000010B586B004461421F7
:100990006846FFF74DFC18492068884229D117485E
:1009A0000021026842F000720260006800F00070EE
:1009B000059012481038026842F002020260006896
:1009C00000F0020005904FF4407000900220CDE945
:1009D000010103200390092004906946084800F0B3
:1009E0005DF801220021142000F0A4F9142000F089
:1009F00095F906B010BD0000006400404038024088
:100A0000000402407047704770477047704700000D
:100A100070B5044690F82000012804D0606A40F4C4
:100A20000020606218E0022084F82000206801683D
:100A300021F00101016000F00FF905460EE000BF52
:100A400000F00AF9401B0A2808D9606A40F4003017
:100A50006062052084F82000012070BD2068406895
:100A6000C007EDD1606270BD704770477047704736
:100A7000704770477047000070B5044600F0ECF80E
:100A80000546601C02D004480078044400F0E4F8F5
:100A9000401BA042FAD370BD100000202DE9F84F92
:100AA000DFF87CB100224FF001084FF0030A4FF04D
:100AB0000F090BF1040E00BF0B6808FA02F4234083
:100AC000A3426ED14D68022D01D0122D0ED1D50852
:100AD00000EB850CDCF820505607F70E09FA07F6F4
:100AE000B5430E69BE402E43CCF820600668550021
:100AF0000F790AFA05FC07F0030726EA0C06AF4057
:100B0000374307604E68012E05D0022E03D0112E08
:100B100001D0122E0ED18668CF6826EA0C06AF40AF
:100B2000374387604668A6430C79C4F300149440A9
:100B300034434460C6688C6826EA0C06AC403443F3
:100B4000C4604C68E40065D5364C256845F48045A2
:100B50002560246822F0030504F480440094324C9C
:100B60002E19D6F8084895072F0F09FA07F5AC4358
:100B70002E4DA84201D1002524E02D4DA84201D1DF
:100B800001251FE02B4DA84201D102251AE02A4D74
:100B9000A84201D1032515E0284DA84202D1042521
:100BA00010E037E0264DA84201D105250AE0254D89
:100BB000A84201D1062505E0234DA84201D1072511
:100BC00000E00825BD402543C6F80858DBF8004082
:100BD0005D464E689C43F60300D51C432C60DEF84E
:100BE000004075464E689C43B60300D51C432C60FC
:100BF0000B4D08352C684E689C43F60200D51C430B
:100C00002C60074D0C352C684E689C43B60200D50D
:100C10001C432C60521C102AFFF44EAFBDE8F88F25
:100C2000003C0140443802400030014000000240D6
:100C30000004024000080240000C02400010024084
:100C40000014024000180240001C024000690840E5
:100C500000D0012070470000014880687047000004
:100C600010000020024881680278114481607047BA
:100C7000100000200B4810B5016841F400710160BC
:100C8000016841F480610160016841F48071016094
:100C9000032000F06FF8002000F006F800F024F8C0
:100CA000002010BD003C024070B50D4D04464FF4CD
:100CB0007A712878B1FBF0F00A490968B1FBF0F0CD
:100CC00000F0C0FA48B9102C07D200222146501E6D
:100CD00000F030F800206C6070BD012070BD000095
:100CE000100000201C0000200B4882B0016841F475
:100CF00080410160006800F4804000900648001FB9
:100D0000016841F080510160006800F0805000905F
:100D1000072002B000F02EB84438024000F01F0255
:100D2000012191404009800000F1E020C0F800114D
:100D300070470000F0B40E4B1B680C46C3F302234F
:100D4000C3F10705042D00D90425191D072901D277
:100D5000002300E0DB1E012606FA05F1491E2140B2
:100D600099409E40761E16403143F0BC00F09ABA7E
:100D70000CED00E0064900F0070208684FF6FF039B
:100D8000184040EA0220034A104308607047000000
:100D90000CED00E00000FA052DE9F0470E460500D5
:100DA00065D0DFF81481D8F80000F7B200F00F002A
:100DB000B04207D288F80070D8F8000000F00F00A9
:100DC000B04254D128683D4C810712D5400703D565
:100DD000206840F4E05020602878000703D52068A0
:100DE00040F4604020602068A96820F0F0000843CB
:100DF00020602878C0072DD030496868083901285C
:100E000012D0022813D0032811D0096889070029BD
:100E10002DDA216821F0030101432160FFF71CFF57
:100E2000814641F2883A0EE009688903EFE70968D4
:100E30008901ECE7FFF710FFA0EB0901514502D94A
:100E40000320BDE8F0872068696800F00C00B0EB73
:100E5000810FEFD1D8F80010404601F00F01B142E8
:100E600007D90770006800F00F00B04201D00120E0
:100E7000E7E72878400705D52068E96820F4E050C6
:100E8000084320602878000706D52068296920F4E7
:100E9000604040EAC100206000F016F82168084A6E
:100EA000C1F30311515CC840064908600020FFF7F8
:100EB000FBFE0020C5E70000003C0240083802406D
:100EC000DC1400081C000020154810B5006810F064
:100ED0000C02144813D04110042A0FD0082A0ED156
:100EE0000F4C241F2268236802F03F025B0207D5E3
:100EF0002068C0F38810A0FB010106E0084610BD81
:100F00002168C1F38811A1FB00010023FFF758F904
:100F10002168C1F30141491C4900B0FBF1F010BD4B
:100F2000083802400024F4002DE9F84F050076D07F
:100F30002878DFF8F8B2BE4CC00749D0DBF80010C3
:100F40005846C1F38101012908D00068C0F381002F
:100F500002280AD1201D0068400206D520688003BF
:100F600036D568680028E2D032E06868B0F5803F86
:100F700010D0B0F5A02F206810D020F48030206071
:100F8000206820F4802020606868A0B1FFF764FE2C
:100F900006460CE0206840F48030F4E740F48020FE
:100FA0002060F7E7FFF758FE801B642873D820689D
:100FB0008003F7D50CE0FFF74FFE064605E000BFC3
:100FC000FFF74AFE801B6428F0D820688003F7D41E
:100FD0002878DFF8608280074FF000093ED5DBF803
:100FE0000010584611F00C0F09D00068C0F38100C2
:100FF00002280BD18D48001F0068400206D42068EB
:10100000800715D5E868012809D111E0E868B8B172
:101010000120C8F80000FFF71FFE064605E002E1C8
:10102000FFF71AFE801B0228C0D820688007F7D57A
:101030002068296920F0F80040EAC10020600DE036
:10104000C8F80090FFF708FE064604E0FFF704FE2C
:10105000801B02281FD820688007F7D42878000753
:1010600022D5724E744869696C3671B101210160F4
:10107000FFF7F2FD074604E0FFF7EEFDC01B022874
:1010800009D830688007F7D50EE0C0F80090FFF768
:10109000E3FD074605E083E0FFF7DEFDC01B022805
:1010A0007ED830688007F7D42878400768D5DFF805
:1010B0007CA100270AF1380ADAF80000C0000BD43E
:1010C000DAF8001041F08051CAF80010DAF8000098
:1010D000012700F080500090584E3068C00510D4B1
:1010E000306840F480703060FFF7B6FD009005E096
:1010F000FFF7B2FD0099401A022851D83068C005A8
:10110000F6D54A4EA868683601280FD00528306801
:1011100010D020F001003060306820F00400306012
:10112000A868B8B1FFF798FD00900FE0306840F074
:101130000100F4E740F004003060F7E7FFF78CFDB2
:101140000099411A41F28830814264D830688007A2
:10115000F4D50EE0FFF780FD009007E0FFF77CFD7F
:101160000099411A41F28830814254D83068800792
:10117000F4D42FB1DAF8001021F08051CAF8001031
:10118000A869C0B3DBF80010C1F3810102294AD07D
:101190000228484607D0C8F86000FFF75DFD00E070
:1011A00039E005463AE04746C8F86000FFF754FDCD
:1011B000064604E0FFF750FD801B02282BD820686C
:1011C0008001F7D4D5E907010843A96A1C4A4908F8
:1011D00002EB01416A6A41EA8211084395F82C103A
:1011E00040EA01611148001F016001203866FFF7E5
:1011F00033FD054605E014E0FFF72EFD401B0228F5
:1012000009D820688001F7D50BE000BFFFF724FD67
:10121000401B022802D90320BDE8F88F2068800116
:10122000F4D40020F8E70120F6E700000838024077
:101230000038024000004742800E474200700040E4
:101240000000FFFF10B5401EB0F1807F01D30120E8
:1012500010BD4FF0E02460610F21601700F022F80C
:101260000020A06107202061002010BDFEE70000E3
:101270000A4809494FF4803201601521416000217C
:101280008160C0E903124161017641768176C176C1
:1012900001774177FFF7EABA0064004020000020A0
:1012A000FEE770470907090E002806DA00F00F0074
:1012B00000F1E02080F8141D704700F1E02080F874
:1012C0000014704770477047FFF7CCBC30B593B03F
:1012D00030216846FEF7ACFF14210CA8FEF7A8FFEA
:1012E00019480025016841F080510160006800F054
:1012F000805011901548016841F4804101600068F8
:10130000022400F4804011900120039010200490EA
:10131000009406940820CDE90750A820CDE90904DF
:1013200007200B906846FFF7FFFD0CA90F2081E80E
:1013300031004FF4A0500F90109005210CA8FFF73A
:101340002BFD13B030BD000040380240007000405B
:101350001048016841F4700101600F48016841F0D4
:10136000010101600C4A00210832116002680B4B38
:101370001A400260031D0A4A1A60026822F48022A1
:10138000026005480C300160024958068039086047
:101390007047000088ED00E000380240FFFFF6FED5
:1013A00010300024FEE702E008C8121F08C1002A1E
:1013B000FAD170477047002001E001C1121F002AD6
:1013C000FBD1704770B50B4D01212846FEF788FF11
:1013D000044602212846FFF739FC0749012C00D1B9
:1013E00008B10A2003E04868002801D101204860C4
:1013F00070BD00000010024000000020FFF73AFC22
:10140000FFF764FFFEF784FFFFF732FF2F4D4FF425
:10141000117600242E600121AC60C5E9034105F17D
:10142000180044F640020461C0E900248460C161F0
:10143000C460016201464038FFF716F8A5F12800A4
:10144000FFF7E6FA0221A5F12800FEF795FFDFF885
:101450008080204C204F4FF0FF0A4FF4704B4FF428
:10146000204900BF4FF47A70FFF706FB606830B187
:10147000012807D0022822D00A28F3D122E0FFF762
:10148000A1FFEFE7134B11492E6084F800A0083349
:10149000104AA1F12800FEF783FFC7F800B0C8206A
:1014A000FFF7EAFA98F8001031B16168491C6160F1
:1014B000002188F80010D5E70A206060D2E74FF4D9
:1014C00030403860C7F80090CCE7000048000020AA
:1014D0000D00002000000020140C0240000000005D
:1014E0000000000001020304060708090C150008AB
:1014F0000000002020000000A61300082C150008A2
:101500002000002088040000B6130008000000003E
:1015100000000000000000000000000001000000CA
:0C15200010000000000000000024F40097
:040000050800018965
:00000001FF
