:020000040800F2
:10000000600600209D010008B71900083B18000891
:10001000B5190008A90200086B1D000800000000C7
:10002000000000000000000000000000DB190008D4
:10003000C703000800000000D9190008DD190008F6
:10004000B7010008B7010008B7010008B7010008B0
:10005000B7010008B7010008B7010008B7010008A0
:10006000B7010008B7010008B7010008B701000890
:10007000B7010008B7010008B7010008B701000880
:10008000B7010008B7010008B7010008B701000870
:10009000AD020008B7010008B7010008B701000869
:1000A000B7010008B7010008B7010008B701000850
:1000B000B7010008BD1A0008C91A0008B7010008F6
:1000C000B7010008B7010008B7010008B701000830
:1000D000B7010008B7010008B7010008B701000820
:1000E000B7010008B7010008B7010008B701000810
:1000F000B7010008B7010008B7010008B701000800
:10010000B7010008B7010008A51B0008B7010008E7
:10011000B7010008B7010008B7010008B7010008DF
:10012000B7010008B7010008B7010008B7010008CF
:10013000B7010008B7010008B7010008B7010008BF
:10014000B7010008B7010008B7010008B7010008AF
:10015000B7010008B7010008B7010008B70100089F
:10016000B7010008B7010008B7010008B70100088F
:10017000B7010008B7010008B7010008000000003F
:10018000B7010008B7010008DFF80CD000F07AF8DA
:1001900000480047F51D000860060020064880471B
:1001A00006480047FEE7FEE7FEE7FEE7FEE7FEE75C
:1001B000FEE7FEE7FEE7FEE7691A0008890100088E
:1001C0002DE9F05F0546002092469B46884606468C
:1001D000814640241BE0284641464746224600F01F
:1001E00041F853465A46C01A914110D31146184659
:1001F000224600F028F82D1A67EB01084F462246E8
:100200000120002100F01FF817EB00094E41201ECD
:10021000A4F10104DFDC484631462A464346BDE8E6
:10022000F09FD2B201E000F8012B491EFBD27047CB
:100230000022F6E710B513460A4604461946FFF7B2
:10024000F0FF204610BD202A04DB203A00FA02F11C
:10025000002070479140C2F1200320FA03F31943B4
:1002600090407047202A04DB203A21FA02F0002156
:10027000704721FA02F3D040C2F1200291400843B6
:1002800019467047064C074D06E0E06840F0010350
:1002900094E8070098471034AC42F6D3FFF778FF94
:1002A000B8200008D8200008FEE70000284910B553
:1002B0004868401C4860642801D1002048602548F7
:1002C00000F0FEF9244B254A0021224800F07BF97A
:1002D000224801682048B1F5087F31D009DCB1F52A
:1002E000007F22D0B1F5047F1FD1082203780021BE
:1002F00029E00124B1F5107F0CD0A1F50071EE3991
:1003000013D1174800F087FC1021154800F083FC3A
:10031000144809E00078072807D2DFE800F0060457
:1003200007090B0D0F001048047010BD0F48FBE7C4
:100330000F48F9E70F48F7E70F48F5E70F48F3E7ED
:10034000037808221021BDE81040054800F020BCC9
:100350001C00002034000020180000204002002073
:100360005C0000200D00002004000020050000209B
:1003700002000020030000200600002007000020EB
:1003800013B50548054B6A4601600146A0F5967015
:1003900000F02EF81CBD00006001002010000020BD
:1003A00070B50D46064600F019FD0446642001F0C4
:1003B0006FFE2946304600F011FDA04201D12046D3
:1003C00070BD002070BD704790F82020012A09D030
:1003D00090F82020022A05D0416A41F48021416230
:1003E00001207047006842690A434261002070475B
:1003F000F0B590F82040012C07D090F82040022C56
:1004000003D0416A41F4802153E00468A5686D017E
:1004100005D4A5682D0102D4A568ED0046D5A468D1
:100420000125C4F30164A5401D608D684FF4C073BD
:100430009DB1CE6835434E6845EAC605066803EBB4
:100440000417F5514FF4C275076805EB04150E69E2
:100450007E51097D012905D009E00E88CD6845EA65
:100460004655EBE701684E5946F480764E511179B6
:10047000D2F805504FF4C67641EA0521056806EB2F
:100480000416A9511178D2F801204FF4C47541EA3D
:100490000221026805EB04155151006803EB0411B9
:1004A000425842F0010242500020F0BD416A41F43E
:1004B000001141620120F0BD10B590F82020012A02
:1004C00009D090F82020022A05D0416A41F4802109
:1004D0004162012010BD3A48D0F8002242F00102EA
:1004E000C0F80022D0F8002222F47C52C0F800228A
:1004F000D0F800224B6A42EA0322C0F800220B7DAA
:1005000001229A40D0F81C329343C0F81C32CB69C8
:10051000B3B9D0F80C329343C0F80C328C894B68D5
:1005200064F31F434C6900EBC404C4F840320C89E7
:100530000B6864F31F434C6900EBC404C4F84432F5
:10054000CB69012B16D1D0F80C321343C0F80C3212
:100550000C884B6864F31F434C6900EBC404C4F877
:1005600040320C89CB6864F31F434C6900EBC40430
:10057000C4F844328B69002BD0F804320ED01343F8
:10058000C0F804320B69002BD0F8143208D01343A2
:10059000C0F81432096A012904D008E09343EFE758
:1005A0009343F5E7D0F81C121143C0F81C12D0F8A1
:1005B000001221F00101C0F80012002010BD00005F
:1005C00000640040704730B590F82040012C07D0FF
:1005D00090F82040022C03D0416A41F4802109E0C8
:1005E00011B1012909D00CE00468E46807E0416A10
:1005F00041F400114162012030BD04682469A40760
:10060000F5D04FF4D874056804EB01142D5915F09A
:100610000405956005682D5942D0ED0855600568C0
:100620002C59C4F34004D4604FF4DA74056804EB29
:1006300001142D5905F00F05156105682D59C5F3F5
:100640000725956105682C59240C54614FF4DC7220
:10065000046802EB0112A4581C700468A458240A10
:100660005C700468A458240C9C700468A258120E94
:10067000DA704FF4DE72046802EB0112A4581C71A8
:100680000468A458240A5C710468A458240C9C7162
:100690000468A258120EDA7129B1012909D00DE0BF
:1006A0006D0D1560BBE70068C16841F02001C160B5
:1006B00004E00068016941F020010161002030BDC3
:1006C0002DE9F05F0546006800244669D0F80490E3
:1006D0008768D0F80CB0D0F810A0D0F81880F107D7
:1006E00048D0F90714D001218160B80703D5284606
:1006F00000F0E3F90CE0780702D54FF4006407E05E
:10070000380702D54FF4805402E0284600F0D4F9AF
:10071000F80516D529684FF480708860B80503D5B0
:10072000284600F0CCF90CE0780502D544F40054DA
:1007300007E0380502D544F4804402E0284600F082
:10074000BDF9F80316D529684FF480308860B803E6
:1007500003D5284600F0B5F90CE0780302D544F43F
:10076000004407E0380302D544F4803402E0284610
:1007700000F0A6F9300707D55FEACB6004D52968F9
:10078000102044F40074C86070074FF0080707D5C4
:100790005FEA0B7004D52868C760284600F05AF954
:1007A000B00706D52868C068800702D0284600F048
:1007B00052F9700607D55FEACA6004D5296810208F
:1007C00044F480640861B00607D55FEA0A7004D576
:1007D00028680761284600F03FF9F00606D528682A
:1007E0000069800702D0284600F037F9B00308D529
:1007F0005FEAC96005D5296810204860284600F0E6
:100800002DF9F00307D55FEA097004D52868476021
:10081000284600F057F9300446D55FEA497040D5C4
:10082000F00504D55FEAC87001D044F00104B005BA
:1008300004D55FEA887001D544F00204700504D540
:100840005FEA487001D544F00404300529D518F05A
:10085000700F26D008F07000402815D006DC102854
:1008600009D020280AD0302816D10AE050280ED00E
:10087000602811D10EE044F008040DE044F01004AB
:100880000AE044F0200407E044F0400404E044F0AF
:10089000800401E044F480742868816921F07001CB
:1008A0008161296804204860002C05D0686A2043D3
:1008B00068622846FFF786FEBDE8F09F70B5040029
:1008C00003D094F8200010B104E0012070BD204650
:1008D00000F082F82068016821F00201016000F058
:1008E00083FA0546052604E000F07EFA401B0A283C
:1008F00011D8206840688007F6D42068016841F06C
:100900000101016000F070FA05460BE000F06CFA9E
:10091000401B0A2806D9606A40F40030606284F8FF
:100920002060D2E720684068C007EFD0207E012811
:10093000206801683DD021F080010160607E0128BF
:100940002068016838D021F040010160A07E0128B4
:100950002068016833D021F020010160E07E012889
:10096000206801682ED041F010010160207F01282D
:100970002068016829D021F008010160607F01280A
:100980002068016824D021F004010160D4E902014B
:100990000843D4E90412114308436168491E08431F
:1009A0002168C86100206062012084F820000020D6
:1009B00070BD41F08001C0E741F04001C5E741F062
:1009C0002001CAE721F01001CFE741F00801D4E788
:1009D00041F00401D9E7000010B586B004461421A7
:1009E0006846FFF725FC18492068884229D1174836
:1009F0000021026842F000720260006800F000709E
:100A0000059012481038026842F001020260006846
:100A100000F0010005904FF4C05000900220CDE995
:100A2000010103200390092004906946084800F062
:100A3000FDF800220121142000F042FA142000F0F9
:100A400033FA06B010BD0000006400404038024098
:100A500000000240704770477047704770470000C1
:100A600070B5044690F82000012804D0606A40F474
:100A70000020606218E0022084F8200020680168ED
:100A800021F00101016000F0AFF905460EE000BF62
:100A900000F0AAF9401B0A2808D9606A40F4003027
:100AA0006062052084F82000012070BD2068406845
:100AB000C007EDD1606270BD7047704770477047E6
:100AC00070477047704770B54379012B1AD00126E3
:100AD00046710223037105682C6840F6FE7393404B
:100AE0009C43D1E900310B43934023432B600168C1
:100AF0000B68C0249440A3430B6006710021417130
:100B0000084670BD022070BD70B5040003D0207986
:100B1000002510B105E0012070BD6571204600F090
:100B200007F802202071256101202071002070BD8E
:100B300010B586B0044614216846FFF779FB1149C9
:100B4000206888421CD110480021026842F00052FF
:100B50000260006800F0005005900B4810380268F1
:100B600042F001020260006800F0010005903020B0
:100B700000900320CDE901016946044800F056F8D1
:100B800006B010BD00740040403802400000024032
:100B900018B5046800940068104421B11430009026
:100BA0000360002018BD0830F9E730B54279012A0A
:100BB00016D0012242710223037103681D6802FAF4
:100BC00001F425431D60002901680B680AD00C68F8
:100BD00003F4802304F46014B3F5802F0FD015E0E4
:100BE000022030BD0C6803F0040304F03804042B29
:100BF0000CD1382C0AD14B6843F0010305E0B4F561
:100C0000601F03D14B6843F002034B600271002167
:100C10004171084630BD10B502681468012303FA1B
:100C200001F18C4314600371002010BD2DE9F84FD1
:100C3000DFF87CB100224FF001084FF0030A4FF0BB
:100C40000F090BF1040E00BF0B6808FA02F42340F1
:100C5000A3426ED14D68022D01D0122D0ED1D508C0
:100C600000EB850CDCF820505607F70E09FA07F662
:100C7000B5430E69BE402E43CCF82060066855008F
:100C80000F790AFA05FC07F0030726EA0C06AF40C5
:100C9000374307604E68012E05D0022E03D0112E77
:100CA00001D0122E0ED18668CF6826EA0C06AF401E
:100CB000374387604668A6430C79C4F30014944018
:100CC00034434460C6688C6826EA0C06AC40344362
:100CD000C4604C68E40065D5364C256845F4804511
:100CE0002560246822F0030504F480440094324C0B
:100CF0002E19D6F8084895072F0F09FA07F5AC43C7
:100D00002E4DA84201D1002524E02D4DA84201D14D
:100D100001251FE02B4DA84201D102251AE02A4DE2
:100D2000A84201D1032515E0284DA84202D104258F
:100D300010E037E0264DA84201D105250AE0254DF7
:100D4000A84201D1062505E0234DA84201D107257F
:100D500000E00825BD402543C6F80858DBF80040F0
:100D60005D464E689C43F60300D51C432C60DEF8BC
:100D7000004075464E689C43B60300D51C432C606A
:100D80000B4D08352C684E689C43F60200D51C4379
:100D90002C60074D0C352C684E689C43B60200D57C
:100DA0001C432C60521C102AFFF44EAFBDE8F88F94
:100DB000003C014044380240003001400000024045
:100DC0000004024000080240000C024000100240F3
:100DD0000014024000180240001C02400069084054
:100DE00000D0012070470000014880687047000073
:100DF0002400002002488168027811448160704715
:100E0000240000200B4810B5016841F40071016016
:100E1000016841F480610160016841F48071016002
:100E2000032000F06DF8002000F006F800F024F830
:100E3000002010BD003C024070B50D4D04464FF43B
:100E40007A712878B1FBF0F00A490968B1FBF0F03B
:100E500000F0C0FA48B9102C07D200222146501EDB
:100E600000F02EF800206C6070BD012070BD000005
:100E700024000020300000200A4808B5016841F431
:100E800080410160006800F4804000900548001F28
:100E9000016841F080510160006800F080500090CE
:100EA00008BD00004438024000F01F0201219140BB
:100EB0004009800000F1E020C0F8001170470000F8
:100EC000F0B40E4B1B680C46C3F30223C3F10705B5
:100ED000042D00D90425191D072901D2002300E0A3
:100EE000DB1E012606FA05F1491E214099409E406D
:100EF000761E16403143F0BC00F05EBD0CED00E004
:100F0000064900F0070208684FF6FF03184040EA60
:100F10000220034A10430860704700000CED00E017
:100F20000000FA052DE9F0470E46050065D0DFF810
:100F30001481D8F80000F7B200F00F00B04207D2D9
:100F400088F80070D8F8000000F00F00B04254D1CB
:100F500028683D4C810712D5400703D5206840F42E
:100F6000E05020602878000703D5206840F46040F6
:100F700020602068A96820F0F000084320602878ED
:100F8000C0072DD0304968680839012812D00228DE
:100F900013D0032811D00968890700292DDA2168A8
:100FA00021F0030101432160FFF71EFF814641F25A
:100FB000883A0EE009688903EFE709688901ECE7E0
:100FC000FFF712FFA0EB0901514502D90320BDE84C
:100FD000F0872068696800F00C00B0EB810FEFD15A
:100FE000D8F80010404601F00F01B14207D9077050
:100FF000006800F00F00B04201D00120E7E7287838
:10100000400705D52068E96820F4E05008432060D7
:101010002878000706D52068296920F4604040EA56
:10102000C100206000F016F82168084AC1F30311DE
:10103000515CC840064908600020FFF7FDFE002013
:10104000C5E70000003C024008380240A620000826
:1010500030000020154810B5006810F00C0214484C
:1010600013D01449042A0FD0082A0ED10F4C241F84
:101070002268236802F03F025B0207D52068C0F3B4
:101080008810A0FB010106E0084610BD2168C1F3ED
:101090008811A1FB00010023FFF792F82168C1F33A
:1010A0000141491C4900B0FBF1F010BD0838024075
:1010B0000024F40040787D012DE9F84F050076D03A
:1010C0002878DFF8F8B2BE4CC00749D0DBF8001032
:1010D0005846C1F38101012908D00068C0F381009E
:1010E00002280AD1201D0068400206D5206880032E
:1010F00036D568680028E2D032E06868B0F5803FF5
:1011000010D0B0F5A02F206810D020F480302060DF
:10111000206820F4802020606868A0B1FFF764FE9A
:1011200006460CE0206840F48030F4E740F480206C
:101130002060F7E7FFF758FE801B642873D820680B
:101140008003F7D50CE0FFF74FFE064605E000BF31
:10115000FFF74AFE801B6428F0D820688003F7D48C
:101160002878DFF8608280074FF000093ED5DBF871
:101170000010584611F00C0F09D00068C0F3810030
:1011800002280BD18D48001F0068400206D4206859
:10119000800715D5E868012809D111E0E868B8B1E1
:1011A0000120C8F80000FFF71FFE064605E002E137
:1011B000FFF71AFE801B0228C0D820688007F7D5E9
:1011C0002068296920F0F80040EAC10020600DE0A5
:1011D000C8F80090FFF708FE064604E0FFF704FE9B
:1011E000801B02281FD820688007F7D428780007C2
:1011F00022D5724E744869696C3671B10121016063
:10120000FFF7F2FD074604E0FFF7EEFDC01B0228E2
:1012100009D830688007F7D50EE0C0F80090FFF7D6
:10122000E3FD074605E083E0FFF7DEFDC01B022873
:101230007ED830688007F7D42878400768D5DFF873
:101240007CA100270AF1380ADAF80000C0000BD4AC
:10125000DAF8001041F08051CAF80010DAF8000006
:10126000012700F080500090584E3068C00510D41F
:10127000306840F480703060FFF7B6FD009005E004
:10128000FFF7B2FD0099401A022851D83068C00516
:10129000F6D54A4EA868683601280FD00528306870
:1012A00010D020F001003060306820F00400306081
:1012B000A868B8B1FFF798FD00900FE0306840F0E3
:1012C0000100F4E740F004003060F7E7FFF78CFD21
:1012D0000099411A41F28830814264D83068800711
:1012E000F4D50EE0FFF780FD009007E0FFF77CFDEE
:1012F0000099411A41F28830814254D83068800701
:10130000F4D42FB1DAF8001021F08051CAF800109F
:10131000A869C0B3DBF80010C1F3810102294AD0EB
:101320000228484607D0C8F86000FFF75DFD00E0DE
:1013300039E005463AE04746C8F86000FFF754FD3B
:10134000064604E0FFF750FD801B02282BD82068DA
:101350008001F7D4D5E907010843A96A1C4A490866
:1013600002EB01416A6A41EA8211084395F82C10A8
:1013700040EA01611148001F016001203866FFF753
:1013800033FD054605E014E0FFF72EFD401B022863
:1013900009D820688001F7D50BE000BFFFF724FDD6
:1013A000401B022802D90320BDE8F88F2068800185
:1013B000F4D40020F8E70120F6E7000008380240E6
:1013C0000038024000004742800E47420070004053
:1013D0000000FFFF10B5401EB0F1807F01D3012057
:1013E00010BD4FF0E02460610F21601700F0E4FAB7
:1013F0000020A06107202061002010BD70477047C9
:1014000030B590F83820012A20D0012280F8382009
:10141000022380F8393003685C6824F070045C6053
:1014200003685C680D682C435C6003689C6824F06A
:1014300080049C6003689C6849680C439C6080F849
:101440003920002180F83810084630BD022030BD18
:1014500010B5040003D094F8390010B107E0012062
:1014600010BD002084F83800204600F00DF802205E
:1014700084F83900211D206800F0A4FB012084F8C5
:101480003900002010BD000010B586B004461421BC
:101490006846FEF7CDFE216800222D48B1F1804F4D
:1014A00011D02C4A91422DD1016841F00201016016
:1014B0000068002200F00200059002211D20FFF7C5
:1014C000FFFC1D202FE0016841F001010160006870
:1014D00000F0010005901E481038016841F001013C
:1014E00001600068694600F001000590022000904C
:1014F000CDE901020390012004901748FFF796FB05
:1015000006B010BD154A914210D1016841F00401A6
:1015100001600068002200F00400059002211E20F6
:10152000FFF7CEFC1E20FFF7BFFCE9E70C4A914213
:10153000E6D1016841F0080101600068002200F076
:101540000800059002213220FFF7BAFC3220EAE7BA
:101550004038024000040040000002400008004003
:10156000000C0040022180F8391001680A6842F03E
:1015700001020A60012180F83910002070470168DB
:10158000CA6842F00102CA600068016841F00101C6
:1015900001600020704770B5044690F838000128BB
:1015A00017D0012584F83850022084F839002068CB
:1015B000826822F0770222F47F4282600868502815
:1015C00037D00DDC202859D005DC88B3102841D154
:1015D00051E0022070BD302853D040283AD13FE07E
:1015E00060282ED070280BD0B0F5805F03D0B0F506
:1015F000005F2FD110E02068816821F0070115E01D
:10160000CB68D1E90121206800F03CFB21688868A3
:1016100040F0770088601DE0CB68D1E901212068A7
:1016200000F030FB2068816841F48041816011E066
:101630001EE0CA684968206800F074FB50212068E9
:1016400006E0CA684968206800F07DFB60212068D8
:1016500000F022FB84F83950002084F8380070BD77
:10166000CA684968206800F05DFB40212068EFE708
:1016700000212068ECE710212068E9E7202120689C
:10168000E6E730212068E3E7704770B5044600685C
:1016900001694FF00005C943890715D4C168C943E2
:1016A000890711D4E91E0161012020762068806934
:1016B0008007204602D0FFF7E7FF04E000F098F82B
:1016C000204600F096F8257620680169C94349074D
:1016D00017D4C168C943490713D46FF004010161ED
:1016E000022020762068806910F4407F204602D0D6
:1016F000FFF7CAFF04E000F07BF8204600F079F81D
:10170000257620680169C943090716D4C168C94311
:10171000090712D46FF008010161042020762068C7
:10172000C0698007204602D0FFF7AEFF04E000F05A
:101730005FF8204600F05DF8257620680169C9430E
:10174000C90617D4C168C943C90613D46FF0100184
:101750000161082020762068C06910F4407F20468F
:1017600002D0FFF791FF04E000F042F8204600F0BD
:1017700040F8257620680169C943C90708D1C168C6
:10178000C943C90704D1891E0161204600F032F81F
:1017900020680169C943090609D4C168C94309061B
:1017A00005D46FF0800101612046FFF727FE206815
:1017B0000169C943490609D4C168C943490605D42A
:1017C0006FF040010161204600F036F820680169A1
:1017D000C94389060BD4C168C943890607D46FF091
:1017E000200101612046BDE87040FFF708BE70BDD2
:1017F00070477047704770B5044690F8380001286C
:1018000018D0012584F83850022084F83900204689
:1018100000F04AFA2068C16821F04001C1602068E8
:10182000C16821F48041C16084F83950002084F8F7
:10183000380070BD022070BD7047FEE70B480A49B2
:101840004FF4802201600221416000218160C0E9E3
:10185000031292004261017641768176C17601776A
:101860004177FFF72BB800000064004034000020EF
:1018700010B588B014216846FEF7DAFC0024114840
:1018800005944FF08041069401604FF47A71C0E9ED
:1018900001148900C0E90314FFF7DAFD0720009066
:1018A00060200190022002900F20049069460548B4
:1018B000FFF7A1FF059405A902480694FFF7A0FDD4
:1018C00008B010BD7000002010B586B0002410488C
:1018D000009401940294039404940C490594C0E983
:1018E00000148460C4600461FFF7B2FD4FF48050BF
:1018F000009069460648FFF74EFE049404A9044888
:101900000594FFF77DFD06B010BD00000004004007
:10191000AC00002010B586B0002412480094019459
:101920000294039404940E490594016041F69C01CD
:10193000C0E9011440F22621C0E90314FFF788FD35
:101940004FF48050009069460648FFF724FE049447
:1019500004A904480594FFF753FD06B010BD00002C
:1019600000080040E800002010B586B000241048B0
:10197000009401940294039404940C490594C0E9E2
:1019800000148460C4600461FFF762FD4FF480506E
:10199000009069460648FFF7FEFD049404A9044838
:1019A0000594FFF72DFD06B010BD0000000C0040AF
:1019B00024010020FEE770470907090E002806DA17
:1019C00000F00F0000F1E02080F8141D704700F1D6
:1019D000E02080F80014704770477047FFF70ABA9C
:1019E00010B592B030216846FEF722FC14210CA8F5
:1019F000FEF71EFC1A480021026842F08052026085
:101A0000006800F0805011901648026842F480424D
:101A100002600068022400F48040119001200390CD
:101A200010200490009406940820CDE9071040206F
:101A3000CDE9090404200B906846FFF73DFB0F2019
:101A4000CDE90C0490200E904FF4A0500F90E002CE
:101A5000109000210CA8FFF765FA12B010BD00002D
:101A600040380240007000401048016841F47001A5
:101A700001600F48016841F0010101600C4A00213A
:101A80000832116002680B4B1A400260031D0A4ABB
:101A90001A60026822F48022026005480C3001605E
:101AA00002495806803908607047000088ED00E060
:101AB00000380240FFFFF6FE103000240148FFF717
:101AC000E4BD0000AC00002070B52C48FFF7DDFD40
:101AD0002B4D2E782B4A2C4900232C4801242EB163
:101AE00016781EB10E780EB90E7826B12D7855B144
:101AF000157825B107E013704FF0807202E0147082
:101B00004FF480720260224D2E78224A1EB1167860
:101B10000EB10E7826B12D7865B1157825B109E0A2
:101B200013704FF0007204E00D781DB914704FF47B
:101B3000007202600D78184A2DB115781DB113702E
:101B40004FF0407106E0097829B1117819B9147085
:101B50004FF440710160114D2E7811490A78964377
:101B600003D00C704FF4006105E02C78144203D0D0
:101B70000B704FF00061016070BD0000E8000020B4
:101B8000090000200A00002001000020180802407F
:101B9000080000200B0000200C0000200D00002099
:101BA0001C00002010B50548FFF76FFD4FF0804086
:101BB000416A034A51610021416210BD24010020A5
:101BC00000100240F0B50268234B244D244E254FEF
:101BD000254C4FF0804C984209D0604507D0A84270
:101BE00005D0B04203D0B84201D0A04204D122F0C7
:101BF000700E4A6842EA0E0298421BD0604519D026
:101C0000A84217D0B04215D0B84213D0A04211D08C
:101C1000164DA8420ED0164DA8420BD0154DA84225
:101C200008D0154DA84205D0144DA84202D0144D3D
:101C3000A84203D122F44075CA682A4302608A6828
:101C4000C2620A688262984201D0A04201D1096949
:101C5000016301214161F0BD00000140000400402A
:101C600000080040000C004000040140004001401A
:101C7000004401400048014000180040001C0040A2
:101C80000020004010B5846842EA032224F47F4417
:101C90000A432243826010BD826822F070020A4328
:101CA00042F007018160704730B403689A6822F0FF
:101CB00070044A68224322F007040A6822439A60AB
:101CC0004A6812F00F0F1FD11211082A1CD2DFE848
:101CD00002F01B1B1B1B0B1D23040B69D1E9022106
:101CE000006830BCFFF7CEBF0268136A146A24F0A4
:101CF0000104146202689469096924F0F00444EA5A
:101D0000011191610068036230BC70470A698968FB
:101D1000006830BC00F006B80A698968006830BC09
:101D200000F011B810B5036A046A24F001040462DB
:101D3000846924F0F00444EA021423F00A020A43FE
:101D40008461026210BD10B5036A23F010030362C0
:101D50008369046A23F4704343EA023224F0A00347
:101D600043EA01118261016210BDFEE7144808B523
:101D7000016841F008010160016801F0080100916B
:101D8000016841F010010160016801F0100100914B
:101D9000016841F00401016000680A4900F0040094
:101DA00000904FF05530086008490748086008481F
:101DB0006FF0030101604FF0AA31C16008BD00005F
:101DC00030380240000C0240FF7755FD0008024009
:101DD0000010024002E008C8121F08C1002AFAD110
:101DE00070477047002001E001C1121F002AFBD19B
:101DF000704700001CB5FFF705F8FFF7F1FD9B48A1
:101E00000025016841F080010160016801F0800156
:101E10000091016841F001010160006800F00100DB
:101E20000090FFF751FDFFF775FDFFF79DFD91490C
:101E300000958F48019508600846FEF765FE0095FD
:101E4000002269468B480195FEF73DFE1022694647
:101E50008848FEF738FEFFF70BFDFFF7EFFCFFF7B2
:101E600085FF41F2883000F013F900218148FEF728
:101E70009CFE10217F48FEF798FE7F480126B103A3
:101E80008560C0E9035618308661C0E90456C66112
:101E90000662C0E900150146A0F5A270FEF70CFB32
:101EA0007548022140300561C0E905154FF49041A5
:101EB000C0E900154FF4FF518160C6610662C16040
:101EC0000146A0F5B670FEF7F7FA6B4803216830BB
:101ED0008661C0E90451C6614FF484410662C0E9DD
:101EE00000150146A0F5CA70FEF7E6FA624804271D
:101EF00090304FF488418661C0E90457C66106629C
:101F0000C0E900150146A0F5DE70FEF7D5FA5A4883
:101F10000521B8300561C0E9051545F6C051C0E995
:101F200000154FF6E0718160C6610662C16001462E
:101F3000A0F5F270FEF7C0FA4E482838FEF790FD83
:101F40004C4802212838FEF73FFA002308221946A0
:101F50004848FEF71DFE0023082210214548FEF7E1
:101F600017FE45483C38FFF70AFB42481430FFF79C
:101F7000F9FA41487838FFF702FB4049300208601F
:101F8000DFF8FC90DFF8FC803F4C4FF0407A60694E
:101F9000E0B1012830D0022848D00328F7D1A07939
:101FA00040B166702573D9F8001041F00101C9F8FD
:101FB0000010A571E07918B16570C8F800A0E5714E
:101FC0006561607B0028E2D06761E0E701212F486E
:101FD000FEF7E6F900B10120207030B3EE21E120D8
:101FE000FEF7CEF900212348FEF715FE1021214807
:101FF000FEF711FE667334E0207960B1C8F800A0E6
:102000006572A5722672E572D9F8001041F00101DF
:10201000C9F800102571607938B1607A28B9257245
:102020004FF00071C8F8001065711AE0A07860B137
:10203000C8F800A02572E5726672A572D9F8001082
:1020400041F00101C9F80010A570E07848B1207A8C
:1020500038B9C8F800A065724FF08071C8F8001058
:10206000E5706069401C606191E700003038024013
:10207000007400405C00002060010020180C024049
:102080001408004018080240000000200010024020
:1020900000EB40020021C2EBC01000E0491CB1EB94
:1020A000401FFBD370470000000000000000010249
:1020B0000304060708090000D820000800000020DB
:1020C00034000000D41D00080C210008340000205A
:1020D0002C060000E41D00080000000000000000C5
:1020E00000000000000000000000000000000000F0
:1020F00000000000000000000000000001000000DF
:0C21000010000000000000000024F400AB
:040000050800018965
:00000001FF
